:04000000E8EF01F034
:0E0008003E82FACF0BF0FBCF0CF0CAED0BF0EE
:100018003E80D8CF2CF0E8CF2DF0E0CF2EF0FACFED
:100028002FF0FBCF30F0E9CF31F0EACF32F0E1CF5B
:1000380033F0E2CF34F0D9CF35F0DACF36F0F3CF62
:1000480037F0F4CF38F0F6CF39F0F7CF3AF0F8CFF1
:100058003BF0F5CF3CF0F2BAF2A40FD00001D71F65
:100068000001D851D8B407D0010E0001D85FD8B428
:1000780002D0898A85D1899A83D1000E0001646FE4
:10008800000E00016B6F9DB29EA27AD19E926AD13A
:100098006BC0D6F07BEC0EF000016B6F00016BA912
:1000A80014D00001D651D8A410D00001DF51D8A433
:1000B80005D0000E0001686F020E04D0000E00018A
:1000C800686F000E676F67C0DFF00001DF51D8A4CA
:1000D80009D0000E0001D26F010E0001D36F8B9280
:1000E8008B944ED100016BA309D00001D651D8A43E
:1000F80005D0E1C0D9FFE2C0DAFFDF2A00016BA515
:1001080009D00001D651D8A405D0E1C0D9FFE2C07A
:10011800DAFFDF0600016BA709D00001D651D8A489
:1001280005D03DB402D03D8401D03D9400016BABB5
:1001380027D10001D651D8A423D1010E84EC0EF0AA
:100148001FD1898689883DB405D0000E00016A6FE9
:10015800200E04D0000E00016A6F400E696F3DB09A
:1001680005D0000E0001616F000E04D0000E0001E2
:10017800616F100E606F000E8BB2010E0001E41962
:10018800D8B407D0000E8BB4010E0001E419D8A42E
:1001980005D0000E0001636F000E04D0000E0001B0
:1001A800636F080E626F010E0001666F3DB2BBD02F
:1001B8003DA65AD0D9C027F0286A296A2A6ACBC036
:1001C80019F0CCC01AF0CDC01BF0CEC01CF0100E38
:1001D8001D6E0E0E1E6E000E1F6E000E206E00ECC1
:1001E8000BF02750195C28501A5829501B581C50DE
:1001F800800A2B6E2A50800A2B58D8A025D0DDC043
:1002080027F0286A296A2A6ACBC019F0CCC01AF0EC
:10021800CDC01BF0CEC01CF0100E1D6E0E0E1E6E53
:10022800000E1F6E000E206E00EC0BF02750195CBC
:1002380028501A5829501B581C50800A2B6E2A50D7
:10024800800A2B58D8A005D0000E0001686F000E58
:1002580004D0000E0001686F020E676F000167513D
:1002680000016811D8A45FD03DA65AD0D9C027F0A4
:10027800286A296A2A6ACBC019F0CCC01AF0CDC006
:100288001BF0CEC01CF0100E1D6E0E0E1E6E000E62
:100298001F6E000E206E00EC0BF02750195C2850E2
:1002A8001A5829501B581C50800A2B6E2A50800A55
:1002B8002B58D8A02AD0DDC027F0286A296A2A6AD4
:1002C800CBC019F0CCC01AF0CDC01BF0CEC01CF0CA
:1002D800100E1D6E0E0E1E6E000E1F6E000E206E8E
:1002E80000EC0BF02750195C28501A5829501B585D
:1002F8001C50800A2B6E2A50800A2B58D8B005D083
:10030800000E00016A6F000E04D0000E00016A6F33
:10031800040E696F0001695100016A11D8A403D065
:10032800000E0001666F00016651000162110001B4
:100338006011000169110001656F0001655172ECDF
:100348000EF01ED08984000E196E0001D25105EC02
:100358000DF016D08984010E196E0001D35105ECF9
:100368000DF00ED000016451000AD8B491D6010AEC
:10037800D8B4E7D6030AD8B4E5D7010AD8B4EAD77F
:100388003CC0F5FF3BC0F8FF3AC0F7FF39C0F6FFA5
:1003980038C0F4FF37C0F3FF36C0DAFF35C0D9FFE5
:1003A80034C0E2FF33C0E1FF32C0EAFF31C0E9FFE9
:1003B80030C0FBFF2FC0FAFF2EC0E0FF2DC0E8FFC2
:0C03C8002CC0D8FF3E901000A9EF0DF0F3
:10080000003F065B4F666D7D077F670010EC0EF0C2
:100810000001DF05D8A403D08B928B948B90ADECB4
:1008200006F0B4C0CFF0B5C0D0F0B6C0D1F0000E25
:100830000001786F200E0001796F420E00017A6F7F
:10084000CFC07BF0D0C07CF0D1C07DF066EC0BF067
:100850000001D8B007D0010E0001DF6F010EC7EC18
:100860000DF0D6D70001DF51D8A4D2D73DA6E8D0ED
:10087000D9C0C6F00001C76BC86BC96BCBC06CF0A8
:10088000CCC06DF0CDC06EF0CEC06FF0100E000188
:10089000706F0E0E716F000E726F000E736FEDECC5
:1008A00009F00001C65100016C5D0001C751000153
:1008B0006D590001C85100016E5900016F51800A45
:1008C0000001CA6F0001C951800A0001CA59D8A0AD
:1008D00078D0DDC0C6F00001C76BC86BC96BCBC058
:1008E0006CF0CCC06DF0CDC06EF0CEC06FF0100ECD
:1008F0000001706F0E0E716F000E726F000E736F3D
:10090000EDEC09F00001C65100016C5D0001C7511A
:1009100000016D590001C85100016E5900016F516D
:10092000800A0001CA6F0001C951800A0001CA593A
:10093000D8B047D0030E0001DA250001746F000122
:10094000756B000E752387EC0DF074C078F075C0E0
:1009500079F076C07AF0CFC07BF0D0C07CF0D1C007
:100960007DF066EC0BF00001D8B008D00001E30583
:10097000D8B4ACD0010E0001DC6FA8D0030E00018A
:10098000DA250001746F0001756B000E752387EC8A
:100990000DF074C078F075C079F076C07AF0CFC0F1
:1009A0007BF0D0C07CF0D1C07DF066EC0BF0000194
:1009B000D8A08CD00001E305D8B488D0E4C0DCF026
:1009C00085D0030E0001DE250001746F0001756BF8
:1009D000000E752387EC0DF074C078F075C079F0C7
:1009E00076C07AF0CFC07BF0D0C07CF0D1C07DF073
:1009F00066EC0BF00001D8A0B9D7CFC078F0D0C01A
:100A000079F0D1C07AF0030E0001DE250001746F89
:100A10000001756B000E752387EC0DF074C07BF040
:100A200075C07CF076C07DF066EC0BF00001D8B0AC
:100A30004DD00001E305D8B449D0E4C0DCF046D085
:100A4000030E0001E0250001746F0001756B000EBC
:100A5000752387EC0DF074C078F075C079F076C01E
:100A60007AF0CFC07BF0D0C07CF0D1C07DF066ECD6
:100A70000BF00001D8A07AD7CFC078F0D0C079F0C1
:100A8000D1C07AF0030E0001E0250001746F00016F
:100A9000756B000E752387EC0DF074C07BF075C08C
:100AA0007CF076C07DF066EC0BF0C0D70001CBA1E6
:100AB00003D08B828B9404D08B9201D08B828B8459
:100AC0001E0E01D0010E0001DB6F0BD00001DC51C6
:100AD000010AD8B4F7D7030AD8B4E8D7010AD8B4C2
:100AE000EDD70001DB51D8B402D08B8091D68B902A
:100AF0008FD679C07DF000017E6B7F6B0001783569
:100B000000017D3701E37E8100017D510001826F8C
:100B10007CC07DF000017E6B7F6B00017B350001A6
:100B20007D3701E37E8100017D510001816F00016D
:100B300082510001D8B411D0000181510001825DC1
:100B4000D8B012D0000182510008000181250001B7
:100B50007D6F180E00017D6507D07AC077F07BC0ED
:100B600078F07CC079F01200000181510001D8B406
:100B700011D0000182510001815DD8B012D0000176
:100B8000815100080001822500017D6F180E0001CF
:100B90007D6507D077C077F078C078F079C079F0BC
:100BA0001200060E0001806F000179AF02D0000133
:100BB000808F00017CAF02D00001808D0001788F12
:100BC000FF0E00017717FF0E00017817000E0001DD
:100BD000791700017B8FFF0E00017A17FF0E0001CD
:100BE0007B17000E00017C17000181510001825D1E
:100BF000D8B025D00001D8907A377B377C370001F8
:100C000081070001825100018119D8B411D000017F
:100C1000800780C07DF0070E00017D17D8B408D092
:100C2000E9D70001D8907933783377330001822BEC
:100C30000001815100018219D8B42BD0F2D70001F4
:100C400082510001815DD8B024D00001D89077375F
:100C5000783779370001820700018251000181193C
:100C6000D8B411D00001800780C07DF0070E0001CC
:100C70007D17D8B408D0E9D70001D8907C337B33F6
:100C80007A330001812B0001815100018219D8A41F
:100C9000F3D7000180AF12D0FF0E0001771BFF0ECB
:100CA0000001781BFF0E0001791B010E0001772760
:100CB000000E00017823000E00017923000180ADB1
:100CC00012D0FF0E00017A1BFF0E00017B1BFF0EEE
:100CD00000017C1B010E00017A27000E00017B231E
:100CE000000E00017C23000E0001806F000177518F
:100CF00000017A270001785100017B23000179511E
:100D000000017C2300017CAF15D0FF0E00017A1B8F
:100D1000FF0E00017B1BFF0E00017C1B010E00017A
:100D20007A27000E00017B23000E00017C23010EB8
:100D30000001806F7AC06CF07BC06DF07CC06EF0FB
:100D400082C06FF080C070F07AEC0AF06CC077F06F
:100D50006DC078F06EC079F01200C282C2B2FED7C8
:100D6000000E0001866FA00E0001876F400E00018B
:100D7000886FC3CF74F0C4CF75F0FBEC0DF074C076
:100D800083F075C084F076C085F098EC08F083C0DD
:100D900092F084C093F085C094F0000E0001956F2E
:100DA000800E0001966F470E0001976F47EC09F027
:100DB00092C0C0F093C0C1F094C0C2F0000E000118
:100DC000866F7A0E0001876F440E0001886FC0C0E5
:100DD00083F0C1C084F0C2C085F098EC08F083C0F5
:100DE00092F084C093F085C094F0000E00017A6FF9
:100DF000A00E00017B6F400E00017C6FC0C074F03C
:100E0000C1C075F0C2C076F0E3EC0DF074C077F0AD
:100E100075C078F076C079F079EC05F077C095F080
:100E200078C096F079C097F047EC09F092C0B7F01F
:100E300093C0B8F094C0B9F0050E0001866F1B0E88
:100E40000001876FB60E0001886F000E00017A6FF7
:100E5000800E00017B6F3F0E00017C6F000E0001D1
:100E6000956FC80E0001966F420E0001976FB7C0D4
:100E700092F0B8C093F0B9C094F047EC09F092C07A
:100E800074F093C075F094C076F0E3EC0DF074C08C
:100E900077F075C078F076C079F079EC05F077C01E
:100EA00083F078C084F079C085F098EC08F083C0B6
:100EB000BAF084C0BBF085C0BCF0BAC074F0BBC04F
:100EC00075F0BCC076F0E3EC0DF074C077F075C03F
:100ED00078F076C079F0220E00017A6F800E000162
:100EE0007B6F370E00017C6F79EC05F077C0BDF0A9
:100EF00078C0BEF079C0BFF0BDC0A1F0BEC0A2F006
:100F0000BFC0A3F0B9EC07F0A1C0C3F0A2C0C4F009
:100F1000A3C0C5F0110E00017A6F800E00017B6F37
:100F2000BB0E00017C6FC3C077F0C4C078F0C5C0B1
:100F300079F079EC05F077C092F078C093F079C041
:100F400094F0050E0001956F9B0E0001966FB50E93
:100F50000001976F47EC09F092C0C3F093C0C4F052
:100F600094C0C5F0C3C0B4F0C4C0B5F0C5C0B6F0FD
:100F70001200000E0001786F000E0001796F000E64
:100F800000017A6FA1C07BF0A2C07CF0A3C07DF00D
:100F900066EC0BF00001D8A012D00001A3AF05D081
:100FA000000E0001D56F210ED46F000E0001A16F5D
:100FB000000E0001A26F000E0001A36F1200A1C07D
:100FC000AAF0A2C0ABF0A3C0ACF0A1C0A4F0A2C034
:100FD000A5F0A3C0A6F00001A41FA51FA61FA42B67
:100FE000000EA523A623C80E0001A4250001B16FA1
:100FF0006E0E0001A5210001B26FBE0E0001A621F8
:101000000001B36F0001D890B333B233B133000E97
:101010000001AA5F800E0001AB5B000E0001AC5B1B
:10102000040E0001AD6FB1C0A7F0B2C0A8F0B3C00C
:10103000A9F0B1C083F0B2C084F0B3C085F0AAC0FB
:1010400086F0ABC087F0ACC088F098EC08F083C0A5
:10105000AEF084C0AFF085C0B0F0AEC083F0AFC0DA
:1010600084F0B0C085F0B1C086F0B2C087F0B3C0E4
:1010700088F098EC08F083C0AEF084C0AFF085C073
:10108000B0F0AEC083F0AFC084F0B0C085F0B1C0A6
:1010900086F0B2C087F0B3C088F098EC08F083C047
:1010A000AEF084C0AFF085C0B0F0B1C083F0B2C084
:1010B00084F0B3C085F0000E0001866FC00E000101
:1010C000876F3F0E0001886F98EC08F083C0B1F085
:1010D00084C0B2F085C0B3F0B1C083F0B2C084F078
:1010E000B3C085F0AEC086F0AFC087F0B0C088F066
:1010F0003CEC0DF083C0B1F084C0B2F085C0B3F019
:101100000001AD2F90D7B1C083F0B2C084F0B3C05E
:1011100085F0A1C086F0A2C087F0A3C088F098EC4B
:1011200008F083C0A1F084C0A2F085C0A3F0120033
:1011300085C089F000018A6B8B6B0001843500014A
:10114000893701E38A810001895100018C6F000118
:101150008C51D8A40AD0000E0001836F000E00014C
:10116000846F000E0001856F120088C089F00001B5
:101170008A6B8B6B000187350001893701E38A8117
:10118000000189510001916F00019151D8A40AD04A
:10119000000E0001836F000E0001846F000E00013D
:1011A000856F1200000191517B0F00018C2785C0D3
:1011B00091F0000188510001911B800E00019117F0
:1011C0000001848F0001878FFF0E00018617FF0E3C
:1011D00000018717000E00018817000E00018D6FB7
:1011E000000E00018E6F000E00018F6F070E0001D0
:1011F000906F000183A10CD00001865100018D2762
:101200000001875100018E230001885100018F23C6
:101210000001D8908533843383330001D89086371A
:10122000873788370001902FE4D7090E0001906FAF
:10123000000183A10CD00001865100018D2700011F
:10124000875100018E230001885100018F23000186
:10125000D8908533843383330001D8908F338E3315
:101260008D330001902FE4D78DC06CF08EC06DF0EF
:101270008FC06EF08CC06FF091C070F07AEC0AF005
:101280006CC083F06DC084F06EC085F0120094C015
:1012900098F00001996B9A6B000193350001983723
:1012A00001E399810001985100019F6F00019F5156
:1012B000D8A40AD0000E0001926F000E0001936FB7
:1012C000000E0001946F120097C098F00001996B16
:1012D0009A6B000196350001983701E3998100016E
:1012E00098510001A06F0001A051D8A40AD0000EAF
:1012F0000001926F000E0001936F000E0001946FC9
:101300001200000E00019C6F000E00019D6F000E88
:1013100000019E6F0001A051890F00019F5F94C0E2
:10132000A0F0000197510001A01B800E0001A01742
:101330000001938FFF0E00019217FF0E000193171B
:10134000000E000194170001968FFF0E0001951703
:10135000FF0E00019617000E00019717180E0001EE
:101360009B6F0001D8909C379D379E3700019551A7
:101370000001925D000196510001935900019751BF
:1013800000019459D8A00ED0000195510001925F40
:10139000000196510001935B000197510001945B9D
:1013A00000019C810001D890923793379437000157
:1013B0009B2FD7D79CC06CF09DC06DF09EC06EF087
:1013C0009FC06FF0A0C070F07AEC0AF06CC092F091
:1013D0006DC093F06EC094F01200000E0001756FA6
:1013E000000173AF0CD00001731F721F711F706D6D
:1013F000000E712372237323010E0001756F00012B
:101400006FAF0CD000016F1F6E1F6D1F6C6D000E53
:101410006D236E236F23010E0001751B000E00016A
:10142000766F000E776F000E786F000E796F0001F7
:101430007051000171110001721100017311D8B4D3
:1014400042D0010E0001746F08D00001D8907037AF
:101450007137723773370001742B000173AFF5D702
:101460000001D89076377737783779370001705197
:1014700000016C5D0001715100016D590001725154
:1014800000016E590001735100016F59D8A012D0AC
:101490000001705100016C5F0001715100016D5B32
:1014A0000001725100016E5B0001735100016F5B1E
:1014B000000176810001D890733372337133703339
:1014C0000001742FCDD7000175510001D8B409D0A7
:1014D0000001791F781F771F766D000E7723782320
:1014E000792376C06CF077C06DF078C06EF079C06B
:1014F0006FF0120000016F510001D8B408D0000154
:101500006C5100016D1100016E11D8A411D0000EB4
:1015100000016C6F000E00016D6F000E00016E6F18
:10152000120000016F2B0001D8906E336D336C33C5
:10153000000E00016C150001716F000E00016D15A9
:101540000001726FFE0E00016E150001736F000145
:1015500071510001721100017311D8B411D0E1D79B
:1015600000016F2B010E00016C27000E00016D239E
:10157000000E00016E230001D8906E336D336C3382
:10158000000E00016C150001716F000E00016D1559
:101590000001726FFF0E00016E150001736F0001F4
:1015A00071510001721100017311D8B408D0D8D75D
:1015B00000016F070001D8906C376D376E3700015E
:1015C0006DBF04D0020E00016F61F2D700016FB150
:1015D00002D000016D9F0001D8906F3300016F5160
:1015E00000016E13000170510001D8B402D0000157
:1015F0006E8F6CC06CF06DC06DF06EC06EF012003E
:10160000000E226E20AE0AD0201E1F1E1E1E1D6C54
:10161000000E1E221F222022010E226E1CAE0AD0B6
:101620001C1E1B1E1A1E196C000E1A221B221C22C5
:10163000010E221A000E236E000E246E000E256E7F
:10164000000E266E1D501E101F102010D8B42AD078
:10165000010E216E06D0D8901D361E361F3620365C
:10166000212A20AEF8D7D8902336243625362636C0
:101670001D50195C1E501A581F501B5820501C58E2
:10168000D8A009D01D50195E1E501A5A1F501B5A5F
:1016900020501C5A2380D89020321F321E321D3217
:1016A000212EE1D72250D8B408D0261E251E241E94
:1016B000236C000E24222522262223C019F024C0E8
:1016C0001AF025C01BF026C01CF0120000017AAFF2
:1016D0001DD078C07EF079C07FF07AC080F0000124
:1016E0007E1F7F1F801F7E2B000E7F238023000E16
:1016F00000017E250001786F000E00017F210001AE
:10170000796F800E0001802100017A6F00017DAFAA
:101710001DD07BC07EF07CC07FF07DC080F00001DA
:101720007E1F7F1F801F7E2B000E7F238023000ED5
:1017300000017E2500017B6F000E00017F2100016A
:101740007C6F800E0001802100017D6F000E000182
:10175000781B000E0001791B800E00017A1B000E21
:1017600000017B1B000E00017C1B800E00017D1B15
:1017700000017B510001785D00017C510001795925
:1017800000017D5100017A59D8B002D0D8901200E2
:10179000D88012000600E9CF0DF0EACF0EF0E1CFBD
:1017A0000FF0E2CF10F0D9CF11F0DACF12F0F3CF73
:1017B00013F0F4CF14F0F6CF15F0F7CF16F0F8CF02
:1017C00017F0F5CF18F09DB09EA029D0F60ECE26CA
:1017D000C20ECF229E90010E0001CB25016E000E9D
:1017E0000001CC21026E000E0001CD21036E000E1F
:1017F0000001CE21046E800E056E510E066E010EA4
:10180000076E000E086E2DEC0CF001C0CBF002C08C
:10181000CCF003C0CDF004C0CEF00001DB0718C04F
:10182000F5FF17C0F8FF16C0F7FF15C0F6FF14C08C
:10183000F4FF13C0F3FF12C0DAFF11C0D9FF10C0CC
:10184000E2FF0FC0E1FF0EC0EAFF0DC0E9FF0CC0D0
:10185000FBFF0BC0FAFF3E921100000E0A6E04AEB1
:101860000AD0041E031E021E016C000E0222032277
:101870000422010E0A6E08AE08D0081E071E061EBE
:10188000056C000E062207220822055006100710DC
:101890000810D8B424D0010E096E06D0D8900536B1
:1018A000063607360836092A08AEF8D70550015C17
:1018B000065002580750035808500458D8A008D0C2
:1018C0000550015E0650025A0750035A0850045A48
:1018D000D8900832073206320532092EE7D70A506F
:1018E000D8B408D0041E031E021E016C000E022292
:1018F0000322042201C001F002C002F003C003F081
:1019000004C004F0120000016D6F9394939A9398B1
:10191000939093989392929C00016CA102D0898637
:1019200001D0899600016C510001D8A402D08988A9
:1019300001D0899800016DA102D08A8401D08A94D7
:1019400000016DA302D08A8A01D08A9A00016DA598
:1019500002D08A8801D08A9800016DA702D08A80BF
:1019600001D08A9000016DA902D08A8801D08A989E
:1019700000016DAB02D08A8201D08A9200016DAD68
:1019800002D0898C1200899C120000016D6F13D067
:1019900000016D51010D010EF324F66E080EF420C6
:1019A000F76E0800F5CF6CF02DD0790E01D0000E47
:1019B00000016C6F27D000016D51000AD8B4E8D740
:1019C000010AD8B4E5D7030AD8B4E2D7010AD8B4DB
:1019D000DFD7070AD8B4DCD7010AD8B4D9D7030AAD
:1019E000D8B4D6D7010AD8B4D3D70F0AD8B4D0D731
:1019F000010AD8B4CDD74C0AD8B4D7D7200AD8B466
:101A0000D4D7D5D700016C5112001A6E9394939AD3
:101A10009398939093989392929C19A002D0898660
:101A200001D089961950D8A402D0898801D089980C
:101A30001AA002D08A8401D08A941AA202D08A8A7B
:101A400001D08A9A1AA402D08A8801D08A981AA64C
:101A500002D08A8001D08A901AA802D08A8801D048
:101A60008A981AAA02D08A8201D08A921AAC02D02D
:101A7000898C1200899C1200000186510001871197
:101A800000018811D8B409D0000E0001861B000E99
:101A90000001871B800E0001881B83C077F084C083
:101AA00078F085C079F086C07AF087C07BF088C076
:101AB0007CF079EC05F077C083F078C084F079C0D1
:101AC00085F01200196E19A002D0928C01D0929C60
:101AD00019A002D0938201D0939219A002D09384CE
:101AE00001D0939419A002D0938601D0939619A0A7
:101AF00002D0938801D0939819A002D0938A01D084
:101B0000939A19A002D09380120093901200000EB5
:101B10000001776F000175AF08D00001746D751F6B
:101B2000D8B0752B010E0001776F74C06CF075C0D2
:101B30006DF000016E6B8E0E00016F6F77C070F05C
:101B40007AEC0AF06CC074F06DC075F06EC076F07F
:101B50001200120EF66E1D0EF76E000EF86E00EEFD
:101B6000E1F010EE04F00900F5CFEEFFE550E15092
:101B7000FAE100EECBF0160EEE6AE806FDE13D6AF2
:101B80003E903E92000EF86E000106EF04F0000158
:101B90006E6F450EC5EC0CF00001D26F00016E5166
:101BA000C5EC0CF00001D36F000E00016C6F00015A
:101BB000D25183EC0CF0010E00016C6F0001D35187
:101BC00083EC0CF01200000174510001751100014A
:101BD0007611D8B409D0000E0001741B000E00016C
:101BE000751B800E0001761B74C074F075C075F013
:101BF00076C076F0120074C06CF075C06DF0000114
:101C00006E6B8E0E00016F6F000E0001706F7AEC2C
:101C10000AF06CC074F06DC075F06EC076F0120002
:101C2000D380D3829B8ED39CD38AD38824EC0EF0AE
:101C300065EC0EF056EC0EF047EC0EF038EC0EF0C2
:101C4000D08EF28EF29C12009280C2809D9C9F9C4E
:101C50009E9CC29AC298C296C294C190C186C18409
:101C6000C182C08AC096C098C084C092C080120051
:101C7000CA94CA80CA92000ECC6ECB68CA96CA9823
:101C8000CA9ACA9C9D829E929F92CA841200CD904D
:101C9000CD8ECD9CCD929D809E909F80CD8ACD880B
:101CA000C20ECF6EF60ECE6ECD801200D59E000E07
:101CB000D76E000ED66ED59CD58AF28AF294F19436
:101CC000D596D584D582D5801200F19E92969286C3
:101CD0009298928892948984929A899A94929494F0
:101CE00094901200196E000E936E898689888994EB
:101CF00019C08AFF1200010E62EC0DF089848986FA
:101D00008988936881501200196E19C0D8F0898AA9
:061D10001200E0000103D7
:020000040020DA
:08000000FFFFFFFFFFFFFFFF00
:020000040030CA
:0E00000000081F1EFF8385FF0FC00FE00F409A
:00000001FF
