:04000000CBEF01F051
:0E0008004482FACF0BF0FBCF0CF0FCED05F0BC
:100018004480D8CF2CF0E8CF2DF0E0CF2EF0FACFE7
:100028002FF0FBCF30F0E9CF31F0EACF32F0E1CF5B
:1000380033F0E2CF34F0D9CF35F0DACF36F0F3CF62
:1000480037F0F4CF38F0F6CF39F0F7CF3AF0F8CFF1
:100058003BF0F5CF3CF0F2AA00D0000E0001646F2F
:10006800000E00016B6F9DB29EA26DD19E925DD174
:100078006BC091F05EEC08F000016B6F00016BA99A
:1000880014D000019151D8A410D000019551D8A4E2
:1000980005D0000E0001686F020E04D0000E0001AA
:1000A800686F000E676F67C095F000019551D8B46E
:1000B8004AD100016BA309D000019151D8A405D001
:1000C80097C0D9FF98C0DAFFDF2A00016BA509D0D5
:1000D80000019151D8A405D097C0D9FF98C0DAFF84
:1000E800DF0600016BA709D000019151D8A405D003
:1000F80043B402D0438401D0439400016BAB23D1B5
:1001080000019151D8A41FD1010E65EC08F01BD154
:1001180043B405D0000E00016A6F200E04D0000E13
:1001280000016A6F400E696F43B005D0000E0001F0
:10013800616F000E04D0000E0001616F100E606F39
:10014800000E8BB0010E00019219D8B407D0000E32
:100158008BB2010E00019219D8A405D0000E00013F
:10016800636F000E04D0000E0001636F080E626F0B
:10017800010E0001666F43B2BBD043A65AD093C0AC
:1001880027F0286A296A2A6A3DC019F03EC01AF089
:100198003FC01BF040C01CF0100E1D6E0E0E1E6EF0
:1001A800000E1F6E000E206E32EC05F02750195C11
:1001B80028501A5829501B581C50800A2B6E2A5058
:1001C800800A2B58D8A025D094C027F0286A296A1D
:1001D8002A6A3DC019F03EC01AF03FC01BF040C06B
:1001E8001CF0100E1D6E0E0E1E6E000E1F6E000E01
:1001F800206E32EC05F02750195C28501A58295007
:100208001B581C50800A2B6E2A50800A2B58D8A0E5
:1002180005D0000E0001686F000E04D0000E00012A
:10022800686F020E676F0001675100016811D8A45A
:100238005FD043A65AD093C027F0286A296A2A6A51
:100248003DC019F03EC01AF03FC01BF040C01CF082
:10025800100E1D6E0E0E1E6E000E1F6E000E206E0E
:1002680032EC05F02750195C28501A5829501B58B1
:100278001C50800A2B6E2A50800A2B58D8A02AD0EE
:1002880094C027F0286A296A2A6A3DC019F03EC03E
:100298001AF03FC01BF040C01CF0100E1D6E0E0E71
:1002A8001E6E000E1F6E000E206E32EC05F02750F9
:1002B800195C28501A5829501B581C50800A2B6E5C
:1002C8002A50800A2B58D8B005D0000E00016A6F5A
:1002D800000E04D0000E00016A6F040E696F000161
:1002E800695100016A11D8A403D0000E0001666F9D
:1002F80000016651000162110001601100016911DD
:100308000001656F0001655155EC08F01CD0000E26
:10031800196E00018F512DEC07F015D0010E196EE2
:10032800000190512DEC07F00ED000016451000A35
:10033800D8B49ED6010AD8B4EBD6030AD8B4E7D706
:10034800010AD8B4EBD73CC0F5FF3BC0F8FF3AC070
:10035800F7FF39C0F6FF38C0F4FF37C0F3FF36C0E7
:10036800DAFF35C0D9FF34C0E2FF33C0E1FF32C045
:10037800EAFF31C0E9FF30C0FBFF2FC0FAFF2EC0F3
:10038800E0FF2DC0E8FF2CC0D8FF44901000ACEF70
:0203980007F06C
:10080000003F065B4F666D7D077F670079C07DF016
:1008100000017E6B7F6B0001783500017D3701E3BD
:100820007E8100017D510001846F00018451D8A4B4
:100830000AD0000E0001776F000E0001786F000EE5
:100840000001796F12007CC07DF000017E6B7F6B30
:1008500000017B3500017D3701E37E8100017D5180
:100860000001856F00018551D8A40AD0000E000157
:10087000776F000E0001786F000E0001796F120093
:10088000000E0001816F000E0001826F000E00015A
:10089000836F00018551890F0001845F79C085F065
:1008A00000017C510001851B800E000185170001AD
:1008B000788FFF0E00017717FF0E00017817000EEA
:1008C0000001791700017B8FFF0E00017A17FF0EE0
:1008D00000017B17000E00017C17180E0001806FCD
:1008E0000001D89081378237833700017A510001A7
:1008F000775D00017B510001785900017C510001B6
:100900007959D8A00ED000017A510001775F00011B
:100910007B510001785B00017C510001795B000193
:1009200081810001D8907737783779370001802F9F
:10093000D7D781C06CF082C06DF083C06EF084C0E8
:100940006FF085C070F0ACEC04F06CC077F06DC057
:1009500078F06EC079F0120000016F510001D8B438
:1009600008D000016C5100016D1100016E11D8A476
:1009700011D0000E00016C6F000E00016D6F000EB3
:1009800000016E6F120000016F2B0001D8906E33D2
:100990006D336C33000E00016C150001716F000E99
:1009A00000016D150001726FFE0E00016E15000151
:1009B000736F000171510001721100017311D8B4FD
:1009C00011D0E1D700016F2B010E00016C27000E42
:1009D00000016D23000E00016E230001D8906E33DC
:1009E0006D336C33000E00016C150001716F000E49
:1009F00000016D150001726FFF0E00016E15000100
:100A0000736F000171510001721100017311D8B4AC
:100A100008D0D8D700016F070001D8906C376D3728
:100A20006E3700016DBF04D0020E00016F61F2D776
:100A300000016FB102D000016D9F0001D8906F33AB
:100A400000016F5100016E13000170510001D8B414
:100A500002D000016E8F6CC06CF06DC06DF06EC086
:100A60006EF01200000E226E20AE0AD0201E1F1E55
:100A70001E1E1D6C000E1E221F222022010E226E41
:100A80001CAE0AD01C1E1B1E1A1E196C000E1A2248
:100A90001B221C22010E221A000E236E000E246E51
:100AA000000E256E000E266E1D501E101F10201009
:100AB000D8B42AD0010E216E06D0D8901D361E362D
:100AC0001F362036212A20AEF8D7D8902336243678
:100AD000253626361D50195C1E501A581F501B58BB
:100AE00020501C58D8A009D01D50195E1E501A5A0B
:100AF0001F501B5A20501C5A2380D89020321F327E
:100B00001E321D32212EE1D72250D8B408D0261E25
:100B1000251E241E236C000E24222522262223C0FB
:100B200019F024C01AF025C01BF026C01CF01200DA
:100B300000016EAF1DD06CC072F06DC073F06EC05E
:100B400074F00001721F731F741F722B000E732349
:100B50007423000E0001722500016C6F000E00016D
:100B6000732100016D6F800E0001742100016E6F12
:100B7000000171AF1DD06FC072F070C073F071C012
:100B800074F00001721F731F741F722B000E732309
:100B90007423000E0001722500016F6F000E00012A
:100BA00073210001706F800E000174210001716FCC
:100BB000000E00016C1B000E00016D1B800E000179
:100BC0006E1B000E00016F1B000E0001701B800EDB
:100BD0000001711B00016F5100016C5D000170513B
:100BE00000016D590001715100016E59D8B002D059
:100BF000D8901200D88012000600E9CF0DF0EACF9D
:100C00000EF0E1CF0FF0E2CF10F0D9CF11F0DACF34
:100C100012F0F3CF13F0F4CF14F0F6CF15F0F7CFB6
:100C200016F0F8CF17F0F5CF18F09DB09EA023D0A6
:100C30009E90C20ECF6EF60ECE6E010E3D24016E5A
:100C4000000E3E20026E000E3F20036E000E40207C
:100C5000046E800E056E510E066E010E076E000EBC
:100C6000086E59EC06F001C03DF002C03EF003C032
:100C70003FF004C040F018C0F5FF17C0F8FF16C0E1
:100C8000F7FF15C0F6FF14C0F4FF13C0F3FF12C046
:100C9000DAFF11C0D9FF10C0E2FF0FC0E1FF0EC0A4
:100CA000EAFF0DC0E9FF0CC0FBFF0BC0FAFF449246
:100CB0001100000E0A6E04AE0AD0041E031E021EAE
:100CC000016C000E022203220422010E0A6E08AEFD
:100CD00008D0081E071E061E056C000E06220722FD
:100CE00008220550061007100810D8B424D0010EB1
:100CF000096E06D0D8900536063607360836092A1A
:100D000008AEF8D70550015C06500258075003584A
:100D100008500458D8A008D00550015E0650025A69
:100D20000750035A0850045AD89008320732063246
:100D30000532092EE7D70A50D8B408D0041E031E86
:100D4000021E016C000E02220322042201C001F0E7
:100D500002C002F003C003F004C004F0120000015E
:100D60006D6F13D000016D51010D010EF324F66E6D
:100D7000080EF420F76E0800F5CF6CF02DD0790E38
:100D800001D0000E00016C6F27D000016D51000AE8
:100D9000D8B4E8D7010AD8B4E5D7030AD8B4E2D763
:100DA000010AD8B4DFD7070AD8B4DCD7010AD8B40F
:100DB000D9D7030AD8B4D6D7010AD8B4D3D70F0AE3
:100DC000D8B4D0D7010AD8B4CDD74C0AD8B4D7D725
:100DD000200AD8B4D4D7D5D700016C511200000135
:100DE0006D6F000E936E898600016CA102D0898818
:100DF00001D0899800016C510001D8A402D0898AE1
:100E000001D0899A00016DA102D08A8401D08A9410
:100E100000016DA302D08A8A01D08A9A00016DA5D3
:100E200002D08A8601D08A9600016DA702D08A80FE
:100E300001D08A9000016DA902D08A8801D08A98D9
:100E400000016DAB02D08A8201D08A9200016DADA3
:100E500002D08A8C12008A9C12001A6E000E936EC9
:100E6000898619A002D0898801D089981950D8A400
:100E700002D0898A01D0899A1AA002D08A8401D02E
:100E80008A941AA202D08A8A01D08A9A1AA402D01D
:100E90008A8601D08A961AA602D08A8001D08A90CA
:100EA0001AA802D08A8801D08A981AAA02D08A8207
:100EB00001D08A921AAC02D08A8C12008A9C12004D
:100EC000C282C2B2FED7C3CF74F0C4CF75F0FFECBC
:100ED00007F074C077F075C078F076C079F0000E36
:100EE00000017A6F800E00017B6F470E00017C6F5E
:100EF00006EC04F077C089F078C08AF079C08BF0F6
:100F000089C086F08AC087F08BC088F01200E8ECB8
:100F100007F060EC07F086C08CF087C08DF088C0C9
:100F20008EF0000E00016C6F200E00016D6F420EFE
:100F300000016E6F8CC06FF08DC070F08EC071F0CC
:100F400098EC05F00001D8B0E4D7010E0001956FD0
:100F5000010ECCEC07F0DDD7C80EF66E100EF76E62
:100F6000000EF86E0900F5CF97F00900F5CF98F064
:100F700000EE8CF00B0EEE6AE806FDE1436A426A71
:100F8000416A406A3F6A3E6A3D6A44904492000E5C
:100F9000F86E000187EF07F000016E6F450EAFECB1
:100FA00006F000018F6F00016E51AFEC06F00001FA
:100FB000906F000E00016C6F00018F51EFEC06F096
:100FC000010E00016C6F00019051EFEC06F0120071
:100FD000D380D3829B8ED39CD39AD38814EC08F011
:100FE000F19E9298929A92969294D08EF28EF29C62
:100FF00046EC08F037EC08F028EC08F0120074C05A
:101000006CF075C06DF000016E6B8E0E00016F6F9D
:10101000000E0001706FACEC04F06CC074F06DC099
:1010200075F06EC076F012009280C2809D9C9F9CED
:101030009E9CC29AC298C296C294C190C186C18435
:10104000C182C08AC096C098C084C092C08012007D
:10105000CA94CA80CA92000ECC6ECB68CA96CA984F
:10106000CA9ACA9C9D829E929F92CA841200CD9079
:10107000CD8ECD9CCD929D809E909F80CD8ACD8837
:10108000C20ECF6EF60ECE6ECD801200D59E000E33
:10109000D76E000ED66ED59CD58AF28AF294F19462
:1010A000D596D584D582D5801200196E000E936E28
:1010B0008988898A899619C08AFF12008986898859
:0C10C000898A936881501200960012008B
:020000040020DA
:08000000FFFFFFFFFFFFFFFF00
:020000040030CA
:0E00000000081F1EFF8305FF0FC00FE00F401A
:00000001FF
