:04000000FBEF01F021
:0E0008003D82FACF0FF0FBCF10F037ED0CF079
:100018003D80D8CF65F0E8CF66F0E0CF67F0FACF43
:1000280068F0FBCF69F0E9CF6AF0EACF6BF0E1CF77
:100038006CF0E2CF6DF0D9CF6EF0DACF6FF0F3CF7E
:1000480070F0F4CF71F0F6CF72F0F7CF73F0F8CF0D
:1000580074F0F5CF75F0F2BAF2A40DD00001CF1FFD
:100068003A50D8B406D0010E3A5ED8B402D0898A84
:100078009AD1899A98D19DB29EA290D1000E316EE4
:100088009E928984898689883828030B386E78D1AE
:1000980031C039F0ACEC10F0316E030E4FEC12F0B9
:1000A800800E326E2FD037B402D0378449D03794BF
:1000B80047D03BC0D9FF3CC0DAFFDF2A41D03BC064
:1000C800D9FF3CC0DAFFDF063BD037B602D037860F
:1000D80037D0379635D0050E4FEC12F00001D651C7
:1000E800D8A408D0020E0001D66F0001CB8F000102
:1000F800CC8F26D0000E0001D66F0001CB9F0001E7
:10010800CC9F1ED03950FF0A311432140001606FA1
:10011800616B00016151000AD8A412D0000160513E
:10012800010AD8B4C0D7030AD8B4C3D7060AD8B4CA
:10013800C6D70C0AD8B4C9D7180AD8B4CCD7300A4D
:1001480032503224326E3250D8B42DD1DBD7000170
:10015800D651D8A402D0100E00D137B604D0000E64
:10016800346E200E03D0000E346E400E336E37B05E
:1001780004D0000E366E000E03D0000E366E100E40
:10018800356E000E8BB2010E0001DD19D8B407D010
:10019800000E8BB4010E0001DD19D8A404D0000EA6
:1001A8002E6E000E03D0000E2E6E080E2D6E010E60
:1001B800306E37B2CED037A464D0D0C060F0000122
:1001C800616B626B636BD7C01FF0D8C020F0D9C0D9
:1001D80021F0DAC022F0100E236E0E0E246E000EEF
:1001E800256E000E266E2AEC0DF0000160511F5C92
:1001F8000001615120580001625121582250800AA3
:100208000001646F00016351800A00016459D8A09D
:100218002CD0D4C060F00001616B626B636BD7C0F7
:100228001FF0D8C020F0D9C021F0DAC022F0100E9B
:10023800236E0E0E246E000E256E000E266E2AEC1E
:100248000DF0000160511F5C000161512058000150
:10025800625121582250800A0001646F00016351E5
:10026800800A00016459D8A004D0000E346E000E34
:1002780003D0000E346E020E336E33503410D8A4FF
:1002880068D037A464D0D0C060F00001616B626BA5
:10029800636BD7C01FF0D8C020F0D9C021F0DAC0F6
:1002A80022F0100E236E0E0E246E000E256E000E28
:1002B800266E2AEC0DF0000160511F5C00016151AF
:1002C80020580001625121582250800A0001646FB1
:1002D80000016351800A00016459D8A030D0D4C00D
:1002E80060F00001616B626B636BD7C01FF0D8C010
:1002F80020F0D9C021F0DAC022F0100E236E0E0EC5
:10030800246E000E256E000E266E2AEC0DF00001FC
:1003180060511F5C00016151205800016251215851
:100328002250800A0001646F00016351800A0001B5
:100338006459D8B004D0000E366E000E03D0000EFB
:10034800366E040E356E35503610D8A402D0000E25
:10035800306E30502D10351033102F6E2F50F5ECB5
:100368000DF021D0899689880001CB5190EC0DF0D1
:100378001AD0898689980001CC5190EC0DF013D0E1
:100388003850000AD8B484D6010AD8B4E0D6030A93
:10039800D8B4E8D7010AD8B4ECD705D0A0B8A1A83A
:1003A80002D0A198A69475C0F5FF74C0F8FF73C079
:1003B800F7FF72C0F6FF71C0F4FF70C0F3FF6FC0A3
:1003C800DAFF6EC0D9FF6DC0E2FF6CC0E1FF6BC001
:1003D800EAFF6AC0E9FF69C0FBFF68C0FAFF67C0AF
:1003E800E0FF66C0E8FF65C0D8FF3D90100011EF40
:0203F80011F002
:10080000003F065B4F666D7D077F6700000000803C
:100810003FF0FFBEE2A93E8376BEAE2B3E3CC3BD99
:07082000D2133D78D3BB00A9
:10082800BDEC11F0B1EC0AF00400B1EC06F0AEC07A
:10083800C8F0AFC0C9F0B0C0CAF0000E0001826FA6
:10084800200E0001836F420E0001846FC8C085F03E
:10085800C9C086F0CAC087F05AEC0EF00001D8B0C3
:1008680004D0010EBEEC0EF0DFD70001D651D8A49B
:10087800DBD737A4E5D0D0C0C3F00001C46BC56B8B
:10088800C66BD7C076F0D8C077F0D9C078F0DAC098
:1008980079F0100E00017A6F0E0E7B6F000E7C6FE0
:1008A800000E7D6F9EEC09F00001C3510001765DDA
:1008B8000001C451000177590001C5510001785960
:1008C80000017951800A0001C76F0001C651800AF2
:1008D8000001C759D8A076D0D4C0C3F00001C46BBA
:1008E800C56BC66BD7C076F0D8C077F0D9C078F0A2
:1008F800DAC079F0100E00017A6F0E0E7B6F000ED1
:100908007C6F000E7D6F9EEC09F00001C351000161
:10091800765D0001C451000177590001C5510001FD
:10092800785900017951800A0001C76F0001C6514A
:10093800800A0001C759D8B045D0030E0001D1255F
:1009480000017E6F00017F6B000E7F235FEC11F0CA
:100958007EC082F07FC083F080C084F0C8C085F07C
:10096800C9C086F0CAC087F05AEC0EF00001D8B0B2
:1009780007D00001DCA1AAD0010E0001D36FA6D0D8
:10098800030E0001D12500017E6F00017F6B000E70
:100998007F235FEC11F07EC082F07FC083F080C0BF
:1009A80084F0C8C085F0C9C086F0CAC087F05AEC88
:1009B8000EF00001D8A08AD00001DCA387D0DDC0EA
:1009C800D3F084D0030E0001D52500017E6F00010D
:1009D8007F6B000E7F235FEC11F07EC082F07FC03A
:1009E80083F080C084F0C8C085F0C9C086F0CAC052
:1009F80087F05AEC0EF00001D8A0BBD7C8C082F02F
:100A0800C9C083F0CAC084F0030E0001D5250001D7
:100A18007E6F00017F6B000E7F235FEC11F07EC0BC
:100A280085F07FC086F080C087F05AEC0EF0000198
:100A3800D8B04CD00001DCA349D0DDC0D3F046D0FB
:100A4800030E0001DB2500017E6F00017F6B000EA5
:100A58007F235FEC11F07EC082F07FC083F080C0FE
:100A680084F0C8C085F0C9C086F0CAC087F05AECC7
:100A78000EF00001D8A07DD7C8C082F0C9C083F0AD
:100A8800CAC084F0030E0001DB2500017E6F00015F
:100A98007F6B000E7F235FEC11F07EC085F07FC076
:100AA80086F080C087F05AEC0EF0C1D70001D7A1BC
:100AB80003D08B828B9404D08B9201D08B828B8451
:100AC8001E0E01D0010E0001D26F0BD00001D351D0
:100AD800010AD8B4F7D7030AD8B4E8D7010AD8B4BA
:100AE800EDD70001D251D8B402D08B809DD68B901F
:100AF8009BD684C088F00001896B8A6B000183351E
:100B08000001883701E389810001885100018D6F58
:100B180087C088F00001896B8A6B00018635000167
:100B2800883701E389810001885100018C6F000139
:100B38008D510001D8B411D000018C5100018D5D98
:100B4800D8B012D000018D51000800018C25000199
:100B5800886F180E0001886507D085C082F086C0AE
:100B680083F087C084F0120000018C510001D8B4D2
:100B780011D000018D5100018C5DD8B012D0000158
:100B88008C51000800018D250001886F180E0001A6
:100B9800886507D082C082F083C083F084C084F067
:100BA8001200060E00018B6F000184AF02D0000115
:100BB8008B8F000187AF02D000018B8D0001838FDE
:100BC800FF0E00018217FF0E00018317000E0001BF
:100BD80084170001868FFF0E00018517FF0E0001A4
:100BE8008617000E0001871700018C5100018D5DEA
:100BF800D8B025D00001D8908537863787370001CF
:100C08008C0700018D5100018C19D8B411D0000156
:100C18008B078BC088F0070E00018817D8B408D05E
:100C2800E9D70001D89084338333823300018D2BB8
:100C380000018C5100018D19D8B42BD0F2D70001D6
:100C48008D5100018C5DD8B024D00001D890823736
:100C58008337843700018D0700018D5100018C19FD
:100C6800D8B411D000018B078BC088F0070E0001A3
:100C78008817D8B408D0E9D70001D89087338633CD
:100C8800853300018C2B00018C5100018D19D8A4EB
:100C9800F3D700018BAF12D0FF0E0001821BFF0EAD
:100CA8000001831BFF0E0001841B010E0001822737
:100CB800000E00018323000E0001842300018BAD88
:100CC80012D0FF0E0001851BFF0E0001861BFF0ED0
:100CD8000001871B010E00018527000E00018623F5
:100CE800000E00018723000E00018B6F0001825166
:100CF80000018527000183510001862300018451EA
:100D080000018723000187AF15D0FF0E0001851B66
:100D1800FF0E0001861BFF0E0001871B010E00015C
:100D28008527000E00018623000E00018723010E8F
:100D380000018B6F85C076F086C077F087C078F0A9
:100D48008DC079F08BC07AF02BEC0AF076C082F077
:100D580077C083F078C084F01200C282C2B2FED796
:100D6800000E0001916FA00E0001926F400E00016D
:100D7800936FC3CF7EF0C4CF7FF0EDEC11F07EC04F
:100D88008EF07FC08FF080C090F0A1EC07F08EC08D
:100D98009DF08FC09EF090C09FF0000E0001A06FE4
:100DA800800E0001A16F470E0001A26FF8EC08F059
:100DB8009DC0BDF09EC0BEF09FC0BFF0000E0001F8
:100DC800856FA00E0001866F400E0001876FBDC0C1
:100DD80076F0BEC077F0BFC078F0D5EC11F076C0E1
:100DE80082F077C083F078C084F07DEC05F082C093
:100DF800A0F083C0A1F084C0A2F0BDC09DF0BEC029
:100E08009EF0BFC09FF0F8EC08F09DC08EF09EC029
:100E18008FF09FC090F0000E0001916F7A0E0001D4
:100E2800926F440E0001936FA1EC07F08EC0C0F0E2
:100E38008FC0C1F090C0C2F0C0C0A9F0C1C0AAF074
:100E4800C2C0ABF050EC08F0A9C0B4F0AAC0B5F02D
:100E5800ABC0B6F0C0C0A9F0C1C0AAF0C2C0ABF028
:100E680050EC08F0A9C0B7F0AAC0B8F0ABC0B9F010
:100E7800000E0001916F800E0001926F3F0E00017D
:100E8800936FB4C08EF0B5C08FF0B6C090F0A1ECEF
:100E980007F08EC085F08FC086F090C087F0000EF6
:100EA8000001916F800E0001926F3F0E0001936F59
:100EB800B7C08EF0B8C08FF0B9C090F0A1EC07F0C1
:100EC8008EC082F08FC083F090C084F07DEC05F076
:100ED80082C0BAF083C0BBF084C0BCF0000E000131
:100EE8009D6F800E00019E6F3F0E00019F6F000EE8
:100EF8000001856F800E0001866F3F0E0001876F2D
:100F0800BAC082F0BBC083F0BCC084F07DEC05F0B1
:100F180082C0A0F083C0A1F084C0A2F0F8EC08F071
:100F28009DC0B1F09EC0B2F09FC0B3F0B1C0AEF0AA
:100F3800B2C0AFF0B3C0B0F0120090C094F000019E
:100F4800956B966B00018F350001943701E395810D
:100F5800000194510001976F00019751D8A40AD05D
:100F6800000E00018E6F000E00018F6F000E000151
:100F7800906F120093C094F00001956B966B00017E
:100F880092350001943701E39581000194510001E5
:100F98009C6F00019C51D8A40AD0000E00018E6FEE
:100FA800000E00018F6F000E0001906F120000010B
:100FB8009C517B0F0001972790C09CF00001935132
:100FC80000019C1B800E00019C1700018F8F0001FF
:100FD800928FFF0E00019117FF0E00019217000E6D
:100FE80000019317000E0001986F000E0001996F21
:100FF800000E00019A6F070E00019B6F00018EA181
:101008000CD0000191510001982700019251000174
:1010180099230001935100019A230001D89090333D
:101028008F338E330001D890913792379337000170
:101038009B2FE4D7090E00019B6F00018EA10CD0F5
:101048000001915100019827000192510001992354
:101058000001935100019A230001D89090338F33F7
:101068008E330001D8909A339933983300019B2F1F
:10107800E4D798C076F099C077F09AC078F097C016
:1010880079F09CC07AF02BEC0AF076C08EF077C02D
:101098008FF078C090F012000001ABAF0FD0000EB7
:1010A8000001CE6F210ECD6F000E0001A96F000E5A
:1010B8000001AA6F000E0001AB6F12000001A951D8
:1010C8000001AA110001AB11D8A40FD0000E000135
:1010D800CE6F220ECD6F000E0001A96F000E000129
:1010E800AA6F000E0001AB6F1200000E0001916F95
:1010F800000E0001926F400E0001936FAC0E0001CC
:10110800796F000E00017A6FA9C076F0AAC077F057
:10111800ABC078F07DEC0FF076C08EF077C08FF022
:1011280078C090F0A1EC07F08EC082F08FC083F0F9
:1011380090C084F0000E0001856F800E0001866F5C
:10114800BF0E0001876F7DEC05F082C0A9F083C057
:10115800AAF084C0ABF00001AC07D8A0AD07A9C0C5
:101168009DF0AAC09EF0ABC09FF00B0E0001A06FCF
:10117800080E0001A16F000E0001A36F080EA26FF8
:10118800B4EC0CF09DC0A9F09EC0AAF09FC0ABF0D3
:10119800720E0001916F310E0001926F3F0E000137
:1011A800936FACC07EF0ADC07FF05FEC11F07EC0F5
:1011B8008EF07FC08FF080C090F0A1EC07F08EC059
:1011C80082F08FC083F090C084F0A9C085F0AAC0D7
:1011D80086F0ABC087F07DEC05F082C0A9F083C033
:1011E800AAF084C0ABF012009FC0A3F00001A46B6A
:1011F800A56B00019E350001A33701E3A48100011E
:10120800A3510001AA6F0001AA51D8A40AD0000E68
:1012180000019D6F000E00019E6F000E00019F6F80
:101228001200A2C0A3F00001A46BA56B0001A135B8
:101238000001A33701E3A4810001A3510001AB6FB2
:101248000001AB51D8A40AD0000E00019D6F000E1A
:1012580000019E6F000E00019F6F1200000E00013A
:10126800A76F000E0001A86F000E0001A96F000112
:10127800AB51890F0001AA5F9FC0ABF00001A251DA
:101288000001AB1B800E0001AB1700019E8FFF0E03
:1012980000019D17FF0E00019E17000E00019F1709
:1012A8000001A18FFF0E0001A017FF0E0001A1177A
:1012B800000E0001A217180E0001A66F0001D890B9
:1012C800A737A837A9370001A05100019D5D00018B
:1012D800A15100019E590001A25100019F59D8A0B7
:1012E8000ED00001A05100019D5F0001A151000135
:1012F8009E5B0001A25100019F5B0001A7810001D4
:10130800D8909D379E379F370001A62FD7D7A7C003
:1013180076F0A8C077F0A9C078F0AAC079F0ABC081
:101328007AF02BEC0AF076C09DF077C09EF078C07A
:101338009FF01200000E00017F6F00017DAF0CD0FE
:1013480000017D1F7C1F7B1F7A6D000E7B237C2391
:101358007D23010E00017F6F000179AF0CD00001E1
:10136800791F781F771F766D000E772378237923EE
:10137800010E00017F1B000E0001806F000E816FBF
:10138800000E826F000E836F00017A5100017B11FD
:1013980000017C1100017D11D8B442D0010E00017A
:1013A8007E6F08D00001D8907A377B377C377D373D
:1013B80000017E2B00017DAFF5D70001D890803762
:1013C80081378237833700017A510001765D000149
:1013D8007B510001775900017C51000178590001C7
:1013E8007D5100017959D8A012D000017A5100012D
:1013F800765F00017B510001775B00017C510001A1
:10140800785B00017D510001795B0001808100015A
:10141800D8907D337C337B337A3300017E2FCDD750
:1014280000017F510001D8B409D00001831F821F39
:10143800811F806D000E81238223832380C076F074
:1014480081C077F082C078F083C079F01200000183
:1014580079510001D8B408D0000176510001771104
:1014680000017811D8A411D0000E0001766F000E8B
:101478000001776F000E0001786F12000001792BD0
:101488000001D890783377337633000E0001761553
:1014980000017B6F000E0001771500017C6FFE0EC6
:1014A8000001781500017D6F00017B5100017C115E
:1014B80000017D11D8B411D0E1D70001792B010EBC
:1014C80000017627000E00017723000E0001782323
:1014D8000001D890783377337633000E0001761503
:1014E80000017B6F000E0001771500017C6FFF0E75
:1014F8000001781500017D6F00017B5100017C110E
:1015080000017D11D8B408D0D8D7000179070001AF
:10151800D890763777377837000177BF04D0020E36
:1015280000017961F2D7000179B102D00001779FFB
:101538000001D89079330001795100017813000136
:101548007A510001D8B402D00001788F76C076F0C5
:1015580077C077F078C078F01200000E62EC12F0D5
:101568000001776F000177510001D76FD86BD96BF5
:10157800DA6B010E62EC12F00001DB6F0001DB5147
:10158800D8A406D0000E0001796F140E786F04D02D
:10159800DBC078F00001796B78C0DBF0020E62ECFA
:1015A80012F00001D06F030E62EC12F00001D16F4F
:1015B8000001D151D8A406D0000E00017B6F140E93
:1015C8007A6F04D0D1C07AF000017B6B7AC0D1F079
:1015D800040E62EC12F00001D46F050E62EC12F0FA
:1015E8000001D56F0001D551D8A406D0000E000126
:1015F8007D6F140E7C6F04D0D5C07CF000017D6B2C
:101608007CC0D5F0060E62EC12F00001826F00017A
:1016180082510F0B0001DC6F0001DC51D8A406D009
:10162800000E00017F6F030E7E6F04D0DCC07EF0D9
:1016380000017F6B7EC0DCF0000182390F0B0F0BBD
:101648000001DD6F0001DD51D8A406D0000E0001B5
:10165800816F030E806F04D0DDC080F00001816BC4
:1016680080C0DDF0120000017E6F00017EAF03D064
:10167800000E00017E6F00017EA102D08A8401D095
:101688008A947EC076F00001776B000E0001796FB6
:10169800020E786F1EEC0FF0000176310001D8A021
:1016A80002D08A8A01D08A9A7EC076F00001776BD0
:1016B800000E0001796F040E786F1EEC0FF0000128
:1016C80076310001D8A002D08A8801D08A987EC0DD
:1016D80076F00001776B000E0001796F080E786FC5
:1016E8001EEC0FF0000176310001D8A002D08A80EC
:1016F80001D08A907EC076F00001776B000E000161
:10170800796F100E786F1EEC0FF000017631000132
:10171800D8A002D08A8801D08A987EC076F00001CD
:10172800776B000E0001796F200E786F1EEC0FF0BA
:10173800000176310001D8A002D08A8201D08A92B5
:101748007EC076F00001776B000E0001796F400EC5
:10175800786F1EEC0FF0000176310001D8A002D09E
:10176800898C1200899C120000017E6F000EE4EC47
:1017780010F0899400017EA102D0898C01D0899C47
:101788007EC076F00001776B000E0001796F020EC3
:10179800786F1EEC0FF0000176310001D8A002D05E
:1017A8008A8201D08A927EC076F00001776B000EA3
:1017B8000001796F040E786F1EEC0FF0000176318E
:1017C8000001D8A002D08A8401D08A947EC076F025
:1017D8000001776B000E0001796F080E786F1EEC20
:1017E8000FF0000176310001D8A002D08A8601D01E
:1017F8008A967EC076F00001776B000E0001796F43
:10180800100E786F1EEC0FF0000176310001D8A0A1
:1018180002D08A8801D08A987EC076F00001776B62
:10182800000E0001796F200E786F1EEC0FF000019A
:1018380076310001D8A002D08A8A01D08A9A7EC067
:1018480076F00001776B000E0001796F400E786F1B
:101858001EEC0FF0000176310001D8A002D08A807A
:1018680012008A9012000600E9CF11F0EACF12F0B8
:10187800E1CF13F0E2CF14F0D9CF15F0DACF16F09C
:10188800F3CF17F0F4CF18F0F6CF19F0F7CF1AF01E
:10189800F8CF1BF0F5CF1CF09DB09EA043D03D0EB5
:1018A8001E6E090E1D6EFF0E0B6EFF0E0C6E1DC018
:1018B8000DF01EC00EF00D1E0E1E0D4A0E2A0B5006
:1018C8000D260C500E220D50CE260E50CF229E9083
:1018D800010E0001D725016E000E0001D821026E0D
:1018E800000E0001D921036E000E0001DA21046EFA
:1018F800800E056E510E066E010E076E000E086E04
:10190800D4EC0FF001C0D7F002C0D8F003C0D9F072
:1019180004C0DAF00001D207000E016E0001D751B1
:1019280034EC12F01CC0F5FF1BC0F8FF1AC0F7FF1B
:1019380019C0F6FF18C0F4FF17C0F3FF16C0DAFF8E
:1019480015C0D9FF14C0E2FF13C0E1FF12C0EAFFBF
:1019580011C0E9FF10C0FBFF0FC0FAFF3D92110054
:10196800A2C076F0A3C077F0000E0001796F030ED5
:10197800786FA2EC11F0A0C0A4F0A1C0A5F00001FE
:1019880076510001A427000177510001A523A4C0C6
:10199800F6FFA5C0F7FF0900F5CFA6F00900F5CFBF
:1019A800A7F00A00F5CFA8F044D0A6C091F0A7C0D0
:1019B80092F0A8C093F09DC08EF09EC08FF09FC09B
:1019C80090F0A1EC07F08EC082F08FC083F090C039
:1019D80084F0000E0001796F030E786F0001A207F2
:1019E800D8A0A307A2C076F0A3C077F0A2EC11F0AC
:1019F800A0C0A4F0A1C0A5F0000176510001A42761
:101A0800000177510001A523A4C0F6FFA5C0F7FF88
:101A18000900F5CF85F00900F5CF86F00A00F5CF6B
:101A280087F07DEC05F082C0A6F083C0A7F084C0E3
:101A3800A8F00001A2510001A311D8A4B6D7A6C0EE
:101A48009DF0A7C09EF0A8C09FF01200000E286E5F
:101A580026AE0AD0261E251E241E236C000E242224
:101A680025222622010E286E22AE0AD0221E211E11
:101A7800201E1F6C000E202221222222010E281A6D
:101A8800000E296E000E2A6E000E2B6E000E2C6EB4
:101A98002350241025102610D8B42AD0010E276E02
:101AA80006D0D8902336243625362636272A26AE61
:101AB800F8D7D89029362A362B362C3623501F5C77
:101AC800245020582550215826502258D8A009D0F3
:101AD80023501F5E2450205A2550215A2650225A3E
:101AE8002980D8902632253224322332272EE1D776
:101AF8002850D8B408D02C1E2B1E2A1E296C000E84
:101B08002A222B222C2229C01FF02AC020F02BC009
:101B180021F02CC022F01200276E27AE02D0000E52
:101B2800276E27A002D08A8401D08A9427C01FF08C
:101B3800206A000E226E020E216E2AEC10F01F3071
:101B4800D8A002D08A8A01D08A9A27C01FF0206ABA
:101B5800000E226E040E216E2AEC10F01F30D8A061
:101B680002D08A8801D08A9827C01FF0206A000E08
:101B7800226E080E216E2AEC10F01F30D8A002D079
:101B88008A8001D08A9027C01FF0206A000E226E3A
:101B9800100E216E2AEC10F01F30D8A002D08A88CF
:101BA80001D08A9827C01FF0206A000E226E200EEE
:101BB800216E2AEC10F01F30D8A002D08A8201D002
:101BC8008A9227C01FF0206A000E226E400E216EF6
:101BD8002AEC10F01F30D8A002D0898C1200899C02
:101BE8001200276E000E3AEC11F0899427A002D05B
:101BF800898C01D0899C27C01FF0206A000E226EB4
:101C0800020E216E2AEC10F01F30D8A002D08A8272
:101C180001D08A9227C01FF0206A000E226E040E9F
:101C2800216E2AEC10F01F30D8A002D08A8401D08F
:101C38008A9427C01FF0206A000E226E080E216EBB
:101C48002AEC10F01F30D8A002D08A8601D08A96DC
:101C580027C01FF0206A000E226E100E216E2AEC9B
:101C680010F01F30D8A002D08A8801D08A9827C0E7
:101C78001FF0206A000E226E200E216E2AEC10F052
:101C88001F30D8A002D08A8A01D08A9A27C01FF0B4
:101C9800206A000E226E400E216E2AEC10F01F30D2
:101CA800D8A002D08A8012008A901200000184AF66
:101CB8001DD082C088F083C089F084C08AF00001FA
:101CC800881F891F8A1F882B000E89238A23000EEC
:101CD800000188250001826F000E000189210001A2
:101CE800836F800E00018A210001846F000187AF95
:101CF8001DD085C088F086C089F087C08AF00001B1
:101D0800881F891F8A1F882B000E89238A23000EAB
:101D1800000188250001856F000E0001892100015E
:101D2800866F800E00018A210001876F000E000176
:101D3800821B000E0001831B800E0001841B000E15
:101D48000001851B000E0001861B800E0001871B09
:101D5800000185510001825D00018651000183590F
:101D68000001875100018459D8B002D0D8901200E0
:101D7800D880120000017F6F450E6CEC10F08009CE
:101D88000001CB6F00017F516CEC10F0800900015D
:101D9800CC6F000EE4EC10F08B928B948B90899AA8
:101DA8008996898889840001CF51800DF3500001FC
:101DB800CB1937EC0BF0030E0001816FE80E806F32
:101DC80000018007D8A0810700018051000181111E
:101DD800D8A4F6D78986899889840001CF51800DC7
:101DE800F3500001CC1937EC0BF0030E0001816FA2
:101DF800E80E806F00018007D8A08107000180519C
:101E080000018111D8A4F6D7898689888994600E43
:101E1800B8EC0BF0030E0001816FE80E806F000133
:101E28008007D8A081070001805100018111D8B432
:101E3800B7D7F5D7000E00017B6F000179AF08D046
:101E48000001786D791FD8B0792B010E00017B6FE6
:101E5800000177AF08D00001766D771FD8B0772BD7
:101E6800010E00017B1B000E00017D6F000E7C6FD0
:101E78000001785100017911D8B42CD0010E00016D
:101E88007A6F06D00001D8907837793700017A2B1D
:101E9800000179AFF7D70001D8907C377D37000172
:101EA80078510001765D0001795100017759D8A079
:101EB8000AD0000178510001765F000179510001D4
:101EC800775B00017C810001D89079337833000179
:101ED8007A2FE1D700017B510001D8B405D0000169
:101EE8007C6D7D1FD8B07D2B7CC076F07DC077F0EF
:101EF8001200000176510001771100017811D8A471
:101F080012D079C0D9FF7AC0DAFF000EDE6E000E5B
:101F1800DD6E000E0001766F000E0001776F000E77
:101F28000001786F1200000178517F0B00017B6F70
:101F38007C6BD89000017B377C3779C0D9FF7AC099
:101F4800DAFF7BC0DEFF7CC0DDFF000177AF04D085
:101F580000017B6B7B2B02D000017B6B00017B5166
:101F680079C0D9FF7AC0DAFFDE12000EDD1279C01F
:101F7800D9FF7AC0DAFF820EDE26FF0EDD220001CD
:101F880078817883788578877889788B789D00013F
:101F9800779F76C076F077C077F078C078F0120037
:101FA800000E0A6E04AE0AD0041E031E021E016C47
:101FB800000E022203220422010E0A6E08AE08D087
:101FC800081E071E061E056C000E062207220822A0
:101FD8000550061007100810D8B424D0010E096E59
:101FE80006D0D8900536063607360836092A08AED0
:101FF800F8D70550015C065002580750035808509E
:102008000458D8A008D00550015E0650025A07505F
:10201800035A0850045AD89008320732063205325B
:10202800092EE7D70A50D8B408D0041E031E021E92
:10203800016C000E02220322042201C001F002C03A
:1020480002F003C003F004C004F01200000E246E76
:1020580022AE06D0216C221ED8B0222A010E246E90
:1020680020AE06D01F6C201ED8B0202A010E241ADC
:10207800000E266E000E256E21502210D8B41CD0FA
:10208800010E236E04D0D89021362236232A22AEA0
:10209800FAD7D8902536263621501F5C2250205872
:1020A800D8A005D021501F5E2250205A2580D890F4
:1020B80022322132232EEDD72450D8B404D0256CF7
:1020C800261ED8B0262A25C01FF026C020F01200F0
:1020D8000001776F13D000017751010D010EF32431
:1020E800F66E080EF420F76E0800F5CF76F02DD0C6
:1020F800790E01D0000E0001766F27D000017751CC
:10210800000AD8B4E8D7010AD8B4E5D7030AD8B486
:10211800E2D7010AD8B4DFD7070AD8B4DCD7010A56
:10212800D8B4D9D7030AD8B4D6D7010AD8B4D3D7E4
:102138000F0AD8B4D0D7010AD8B4CDD74C0AD8B42E
:10214800D7D7200AD8B4D4D7D5D7000176511200F2
:10215800010E3AEC11F0000E206E81A002D0010EA3
:1021680001D0000E010DF350201281A202D0010E01
:1021780001D0000E020DF350201281A402D0010EEE
:1021880001D0000E040DF350201281A602D0010EDA
:1021980001D0000E080DF350201281A802D0010EC4
:1021A80001D0000E100DF350201281AA02D0010EAA
:1021B80001D0000E200DF35020122050FF0A12000B
:1021C8000001766F000176A102D0928C01D0929C1A
:1021D800000176A102D0938201D09392000176A1EA
:1021E80002D0938401D09394000176A102D0938603
:1021F80001D09396000176A102D0938801D09398DC
:10220800000176A102D0938A01D0939A000176A1A9
:1022180002D09380120093901200DA0EF66E240E0C
:10222800F76E000EF86E0900F5CFDCF00900F5CF67
:10223800DDF0D80EF66E240EF76E000EF86E09006B
:10224800F5CF3BF00900F5CF3CF000EEC8F00F0EDB
:10225800EE6AE806FDE1376A3A6A396A386A3D90FB
:102268003D92000EF86E000114EF04F01F6E1FA0DF
:1022780002D0928C01D0929C1FA002D0938201D0F0
:1022880093921FA002D0938401D093941FA002D0F0
:10229800938601D093961FA002D0938801D093987B
:1022A8001FA002D0938A01D0939A1FA002D09380D6
:1022B800120093901200000E0001816F00017FAFA1
:1022C80008D000017E6D7F1FD8B07F2B010E000162
:1022D800816F7EC076F07FC077F00001786B8E0E3C
:1022E8000001796F81C07AF02BEC0AF076C07EF09D
:1022F80077C07FF078C080F01200CD90CD8ECD9C55
:10230800CD929D809E909F80CD8ACD883D0E000104
:10231800796F090E786F78C076F079C077F0000190
:10232800761F771F764B772BFF0E00017625CE6E32
:10233800FF0E00017721CF6ECD801200000176518B
:1023480000017803F3CF7AF0F4CF7BF000017651E7
:1023580000017903F35000017B2700017751000148
:102368007803F35000017B277AC076F07BC077F0C2
:102378001200D380D3829B8ED39CD38AD38802EC5D
:1023880012F042EC12F025EC12F081EC11F016EC90
:1023980012F059EC12F0D08EF28EF29C69EC12F029
:1023A8001200000176510001771100017811D8B4AC
:1023B80009D0000E0001761B000E0001771B800E6D
:1023C8000001781B76C076F077C077F078C078F097
:1023D80012007EC076F07FC077F00001786B8E0E19
:1023E8000001796F000E00017A6F2BEC0AF076C0BD
:1023F8007EF077C07FF078C080F012009280C280B3
:102408009D9C9F9C9E9CC29AC298C296C294C19061
:10241800C186C184C182C08AC096C098C084C09257
:10242800C0801200CA94CA80CA92000ECC6ECB68D3
:10243800CA96CA98CA9ACA9C9D829E929F92CA843A
:102448001200D59E000ED76E000ED66ED59CD58A8A
:10245800F28AF294F194D596D584D582D58012006B
:10246800026EA68402C0A9FF01C0A8FFF29E550E05
:10247800A76EAA0EA76EF28EA6821200F19E929601
:1024880092869298928892948984929A899A949240
:102498009494949012001F6E1FC03AF03A50D8B42A
:1024A80002D0898A1200899A1200A69EA69CA69834
:1024B800A696A694A088A198A29812000001766F0B
:1024C80076C0A9FFA680A8501200D180040012008F
:0424D800DB00020320
:020000040020DA
:08000000FFFFFFFFFFFFFFFF00
:020000040030CA
:0E00000000081F1EFF8385FF0FC00FE00F409A
:00000001FF
