:040000000DEF02F00E
:0E0008003D82FACF0FF0FBCF10F0A3ED0BF00E
:100018003D80D8CF65F0E8CF66F0E0CF67F0FACF43
:1000280068F0FBCF69F0E9CF6AF0EACF6BF0E1CF77
:100038006CF0E2CF6DF0D9CF6EF0DACF6FF0F3CF7E
:1000480070F0F4CF71F0F6CF72F0F7CF73F0F8CF0D
:1000580074F0F5CF75F0F2BAF2A402D0F294B5D1EB
:100068009DB29EA2ADD1000E316E9E928984898682
:1000780089883828030B386E78D131C039F0B4EC50
:1000880010F0316E030EC7EC12F0800E326E2FD0D6
:1000980037B402D0378449D0379447D03BC0D9FF12
:1000A8003CC0DAFFDF2A41D03BC0D9FF3CC0DAFFB1
:1000B800DF063BD037B602D0378637D0379635D0F3
:1000C800050EC7EC12F00001E251D8A408D0020EC8
:1000D8000001E26F0001D78F0001D88F26D0000EF3
:1000E8000001E26F0001D79F0001D89F1ED0395050
:1000F800FF0A311432140001606F616B0001615115
:10010800000AD8A412D000016051010AD8B4C0D79F
:10011800030AD8B4C3D7060AD8B4C6D70C0AD8B4C9
:10012800C9D7180AD8B4CCD7300A32503224326E24
:100138003250D8B427D1DBD70001E251D8A402D07D
:10014800100E00D137B604D0000E346E200E03D046
:10015800000E346E400E336E37B004D0000E366E8B
:10016800000E03D0000E366E100E356E000E8BB2E8
:10017800010E0001E919D8B407D0000E8BB4010EA6
:100188000001E919D8A404D0000E2E6E000E03D089
:10019800000E2E6E080E2D6E010E306E37B2CED0C8
:1001A80037A464D0DCC060F00001616B626B636BE4
:1001B800E3C01FF0E4C020F0E5C021F0E6C022F063
:1001C800100E236E0E0E246E000E256E000E266E87
:1001D80092EC0DF0000160511F5C00016151205844
:1001E8000001625121582250800A0001646F000109
:1001F8006351800A00016459D8A02CD0E0C060F097
:100208000001616B626B636BE3C01FF0E4C020F018
:10021800E5C021F0E6C022F0100E236E0E0E246E0B
:10022800000E256E000E266E92EC0DF00001605156
:100238001F5C000161512058000162512158225071
:10024800800A0001646F00016351800A000164594B
:10025800D8A004D0000E346E000E03D0000E346E09
:10026800020E336E33503410D8A468D037A464D04B
:10027800DCC060F00001616B626B636BE3C01FF070
:10028800E4C020F0E5C021F0E6C022F0100E236E95
:100298000E0E246E000E256E000E266E92EC0DF0EA
:1002A800000160511F5C000161512058000162513A
:1002B80021582250800A0001646F00016351800AAE
:1002C80000016459D8A030D0E0C060F00001616B33
:1002D800626B636BE3C01FF0E4C020F0E5C021F05F
:1002E800E6C022F0100E236E0E0E246E000E256E50
:1002F800000E266E92EC0DF0000160511F5C0001AB
:10030800615120580001625121582250800A000191
:10031800646F00016351800A00016459D8B004D0A9
:10032800000E366E000E03D0000E366E040E356ECB
:1003380035503610D8A402D0000E306E30502D1033
:10034800351033102F6E2F505DEC0EF01BD08996B0
:1003580089880001D751F8EC0DF014D08986899866
:100368000001D851F8EC0DF00DD03850000AD8B47F
:1003780084D6010AD8B4E0D6030AD8B4E8D7010A6B
:10038800D8B4ECD73850D8A420D0010E0001DB2512
:100398001F6E206A000E2022000E226E180E216E9B
:1003A800ECEC10F01F500001DB6F3A50D8B406D0C7
:1003B800010E3A5ED8B402D0898A07D0899A05D04E
:1003C800A0B8A1A802D0A198A69475C0F5FF74C0E2
:1003D800F8FF73C0F7FF72C0F6FF71C0F4FF70C07A
:1003E800F3FF6FC0DAFF6EC0D9FF6DC0E2FF6CC0CB
:1003F800E1FF6BC0EAFF6AC0E9FF69C0FBFF68C0A4
:10040800FAFF67C0E0FF66C0E8FF65C0D8FF3D900F
:06041800100051EF11F08D
:10080000003F065B4F666D7D077F6700000000803C
:100810003FF0FFBEE2A93E8376BEAE2B3E3CC3BD99
:07082000D2133D78D3BB00A9
:1008280026EC12F09CEC0AF004007AEC11F0B3EC20
:1008380006F0BDC0D4F0BEC0D5F0BFC0D6F0000EE3
:100848000001826F340E0001836F420E0001846F35
:10085800D4C085F0D5C086F0D6C087F0C2EC0EF0C3
:100868000001D8B004D0010EA2EC0CF0DDD70001D5
:10087800E251D8A4D9D737A4E5D0DCC0CFF0000125
:10088800D06BD16BD26BE3C076F0E4C077F0E5C0F3
:1008980078F0E6C079F0100E00017A6F0E0E7B6FCB
:1008A800000E7C6F000E7D6F89EC09F00001CF51BE
:1008B8000001765D0001D051000177590001D15146
:1008C8000001785900017951800A0001D36F0001B5
:1008D800D251800A0001D359D8A076D0E0C0CFF019
:1008E8000001D06BD16BD26BE3C076F0E4C077F037
:1008F800E5C078F0E6C079F0100E00017A6F0E0EB0
:100908007B6F000E7C6F000E7D6F89EC09F0000193
:10091800CF510001765D0001D051000177590001E7
:10092800D1510001785900017951800A0001D36F33
:100938000001D251800A0001D359D8B045D0030E26
:100948000001DD2500017E6F00017F6B000E7F2313
:10095800C8EC11F07EC082F07FC083F080C084F0C4
:10096800D4C085F0D5C086F0D6C087F0C2EC0EF0B2
:100978000001D8B007D00001E8A1AAD0010E0001FB
:10098800DF6FA6D0030E0001DD2500017E6F000198
:100998007F6B000E7F23C8EC11F07EC082F07FC011
:1009A80083F080C084F0D4C085F0D5C086F0D6C06E
:1009B80087F0C2EC0EF00001D8A08AD00001E8A3AD
:1009C80087D0E9C0DFF084D0030E0001E1250001E3
:1009D8007E6F00017F6B000E7F23C8EC11F07EC094
:1009E80082F07FC083F080C084F0D4C085F0D5C089
:1009F80086F0D6C087F0C2EC0EF00001D8A0BBD7B5
:100A0800D4C082F0D5C083F0D6C084F0030E0001B4
:100A1800E12500017E6F00017F6B000E7F23C8EC8B
:100A280011F07EC085F07FC086F080C087F0C2ECF0
:100A38000EF00001D8B04CD00001E8A349D0E9C0BD
:100A4800DFF046D0030E0001E72500017E6F0001AC
:100A58007F6B000E7F23C8EC11F07EC082F07FC050
:100A680083F080C084F0D4C085F0D5C086F0D6C0AD
:100A780087F0C2EC0EF00001D8A07DD7D4C082F078
:100A8800D5C083F0D6C084F0030E0001E72500012D
:100A98007E6F00017F6B000E7F23C8EC11F07EC0D3
:100AA80085F07FC086F080C087F0C2EC0EF0C1D719
:100AB8000001E3A103D08B828B9404D08B9201D0E8
:100AC8008B828B841E0E01D0010E0001DE6F0BD0CD
:100AD8000001DF51010AD8B4F7D7030AD8B4E8D720
:100AE800010AD8B4EDD70001DE51D8B402D08B800A
:100AF8009BD68B9099D684C088F00001896B8A6B4D
:100B0800000183350001883701E38981000188519C
:100B180000018D6F87C088F00001896B8A6B000126
:100B280086350001883701E3898100018851000179
:100B38008C6F00018D510001D8B411D000018C5187
:100B480000018D5DD8B012D000018D510008000160
:100B58008C250001886F180E0001886507D085C0B4
:100B680082F086C083F087C084F0120000018C51A7
:100B78000001D8B411D000018D5100018C5DD8B0AE
:100B880012D000018C51000800018D250001886FEA
:100B9800180E0001886507D082C082F083C083F0F8
:100BA80084C084F01200060E00018B6F000184AF30
:100BB80002D000018B8F000187AF02D000018B8D1E
:100BC8000001838FFF0E00018217FF0E00018317BB
:100BD800000E000184170001868FFF0E00018517A3
:100BE800FF0E00018617000E0001871700018C51C7
:100BF80000018D5DD8B025D00001D89085378637A3
:100C0800873700018C0700018D5100018C19D8B479
:100C180011D000018B078BC088F0070E00018817E0
:100C2800D8B408D0E9D70001D8908433833382330D
:100C380000018D2B00018C5100018D19D8B42BD0E7
:100C4800F2D700018D5100018C5DD8B024D000018D
:100C5800D89082378337843700018D0700018D5182
:100C680000018C19D8B411D000018B078BC088F013
:100C7800070E00018817D8B408D0E9D70001D8902A
:100C880087338633853300018C2B00018C5100019A
:100C98008D19D8A4F3D700018BAF12D0FF0E000135
:100CA800821BFF0E0001831BFF0E0001841B010E37
:100CB80000018227000E00018323000E0001842317
:100CC80000018BAD12D0FF0E0001851BFF0E000145
:100CD800861BFF0E0001871B010E00018527000EF1
:100CE80000018623000E00018723000E00018B6F90
:100CF80000018251000185270001835100018623EC
:100D08000001845100018723000187AF15D0FF0E31
:100D18000001851BFF0E0001861BFF0E0001871BCB
:100D2800010E00018527000E00018623000E000138
:100D38008723010E00018B6F85C076F086C077F09F
:100D480087C078F08DC079F08BC07AF016EC0AF085
:100D580076C082F077C083F078C084F01200C28237
:100D6800C2B2FED7000E0001916FA00E0001926F73
:100D7800400E0001936FC3CF7EF0C4CF7FF056ECD6
:100D880012F07EC08EF07FC08FF080C090F08CECA7
:100D980007F08EC0AEF08FC0AFF090C0B0F0000E7C
:100DA8000001B16F800E0001B26F470E0001B36FF2
:100DB800E3EC08F0AEC0C9F0AFC0CAF0B0C0CBF0E9
:100DC800000E0001856FA00E0001866F400E000125
:100DD800876FC9C076F0CAC077F0CBC078F03EEC18
:100DE80012F076C082F077C083F078C084F07FEC90
:100DF80005F082C0B1F083C0B2F084C0B3F0C9C0BE
:100E0800AEF0CAC0AFF0CBC0B0F0E3EC08F0AEC0B3
:100E18008EF0AFC08FF0B0C090F0000E0001916F5F
:100E28007A0E0001926F440E0001936F8CEC07F06C
:100E38008EC0CCF08FC0CDF090C0CEF0CCC0A9F061
:100E4800CDC0AAF0CEC0ABF03BEC08F0A9C0C3F00F
:100E5800AAC0C4F0ABC0C5F0CCC0A9F0CDC0AAF000
:100E6800CEC0ABF03BEC08F0A9C0C6F0AAC0C7F0F2
:100E7800ABC0C8F0000E0001AE6F800E0001AF6F6E
:100E88003F0E0001B06F000E0001916F000E0001CF
:100E9800926F000E0001936FC3C08EF0C4C08FF034
:100EA800C5C090F08CEC07F08EC085F08FC086F03E
:100EB80090C087F0000E0001916F000E0001926F44
:100EC800000E0001936FC6C08EF0C7C08FF0C8C077
:100ED80090F08CEC07F08EC082F08FC083F090C049
:100EE80084F07FEC05F082C0B1F083C0B2F084C01A
:100EF800B3F0E3EC08F0AEC0C0F0AFC0C1F0B0C0D2
:100F0800C2F0C0C0BDF0C1C0BEF0C2C0BFF0120088
:100F180090C094F00001956B966B00018F3500012D
:100F2800943701E39581000194510001976F000106
:100F38009751D8A40AD0000E00018E6F000E000150
:100F48008F6F000E0001906F120093C094F00001A3
:100F5800956B966B000192350001943701E39581FA
:100F68000001945100019C6F00019C51D8A40AD043
:100F7800000E00018E6F000E00018F6F000E000141
:100F8800906F120000019C517B0F0001972790C0C1
:100F98009CF00001935100019C1B800E00019C17DE
:100FA80000018F8F0001928FFF0E00019117FF0E35
:100FB80000019217000E00019317000E0001986FB0
:100FC800000E0001996F000E00019A6F070E0001D4
:100FD8009B6F00018EA10CD0000191510001982750
:100FE80000019251000199230001935100019A23B5
:100FF8000001D89090338F338E330001D890913709
:101008009237933700019B2FE4D7090E00019B6F9D
:1010180000018EA10CD00001915100019827000118
:101028009251000199230001935100019A23000174
:10103800D89090338F338E330001D8909A339933F8
:10104800983300019B2FE4D798C076F099C077F0C9
:101058009AC078F097C079F09CC07AF016EC0AF044
:1010680076C08EF077C08FF078C090F01200000143
:10107800ABAF0FD0000E0001DA6F210ED96F000E52
:101088000001A96F000E0001AA6F000E0001AB6FEE
:1010980012000001A9510001AA110001AB11D8A446
:1010A8000FD0000E0001DA6F220ED96F000E00017A
:1010B800A96F000E0001AA6F000E0001AB6F1200AD
:1010C800000E0001916F000E0001926F400E0001AA
:1010D800936FAC0E0001796F000E00017A6FA9C002
:1010E80076F0AAC077F0ABC078F085EC0FF076C048
:1010F8008EF077C08FF078C090F08CEC07F08EC03F
:1011080082F08FC083F090C084F0000E0001856FDC
:10111800800E0001866FBF0E0001876F7FEC05F01F
:1011280082C0A9F083C0AAF084C0ABF00001AC076C
:10113800D8A0AD07A9C09DF0AAC09EF0ABC09FF093
:101148000B0E0001A06F080E0001A16F000E000138
:10115800A36F080EA26F1CEC0DF09DC0A9F09EC0F5
:10116800AAF09FC0ABF0720E0001916F310E000122
:10117800926F3F0E0001936FACC07EF0ADC07FF060
:10118800C8EC11F07EC08EF07FC08FF080C090F068
:101198008CEC07F08EC082F08FC083F090C084F092
:1011A800A9C085F0AAC086F0ABC087F07FEC05F037
:1011B80082C0A9F083C0AAF084C0ABF01200B0C00E
:1011C800B4F00001B56BB66B0001AF350001B43760
:1011D80001E3B5810001B4510001BB6F0001BB51AF
:1011E800D8A40AD0000E0001AE6F000E0001AF6F48
:1011F800000E0001B06F1200B3C0B4F00001B56B6F
:10120800B66B0001B2350001B43701E3B5810001C6
:10121800B4510001BC6F0001BC51D8A40AD0000E23
:101228000001AE6F000E0001AF6F000E0001B06F3D
:101238001200000E0001B86F000E0001B96F000E19
:101248000001BA6F0001BC51890F0001BB5FB0C03B
:10125800BCF00001B3510001BC1B800E0001BC179B
:101268000001AF8FFF0E0001AE17FF0E0001AF1790
:10127800000E0001B0170001B28FFF0E0001B11778
:10128800FF0E0001B217000E0001B317180E00017F
:10129800B76F0001D890B837B937BA370001B151E4
:1012A8000001AE5D0001B2510001AF590001B35118
:1012B8000001B059D8A00ED00001B1510001AE5FB5
:1012C8000001B2510001AF5B0001B3510001B05BF6
:1012D8000001B8810001D890AE37AF37B0370001B0
:1012E800B72FD7D7B8C076F0B9C077F0BAC078F0C2
:1012F800BBC079F0BCC07AF016EC0AF076C0AEF04C
:1013080077C0AFF078C0B0F01200000E00017F6F18
:1013180000017DAF0CD000017D1F7C1F7B1F7A6D03
:10132800000E7B237C237D23010E00017F6F0001CB
:1013380079AF0CD00001791F781F771F766D000EEA
:10134800772378237923010E00017F1B000E00010B
:10135800806F000E816F000E826F000E836F000198
:101368007A5100017B1100017C1100017D11D8B474
:1013780042D0010E00017E6F08D00001D8907A3764
:101388007B377C377D3700017E2B00017DAFF5D799
:101398000001D890803781378237833700017A512E
:1013A8000001765D00017B510001775900017C51F5
:1013B8000001785900017D5100017959D8A012D057
:1013C80000017A510001765F00017B510001775BD3
:1013D80000017C510001785B00017D510001795BBF
:1013E800000180810001D8907D337C337B337A33D0
:1013F80000017E2FCDD700017F510001D8B409D05C
:101408000001831F821F811F806D000E81238223AC
:10141800832380C076F081C077F082C078F083C0E3
:1014280079F01200000179510001D8B408D0000108
:1014380076510001771100017811D8A411D0000E5F
:101448000001766F000E0001776F000E0001786FC3
:1014580012000001792B0001D89078337733763366
:10146800000E0001761500017B6F000E0001771554
:1014780000017C6FFE0E0001781500017D6F0001F0
:101488007B5100017C1100017D11D8B411D0E1D746
:101498000001792B010E00017627000E0001772349
:1014A800000E000178230001D89078337733763323
:1014B800000E0001761500017B6F000E0001771504
:1014C80000017C6FFF0E0001781500017D6F00019F
:1014D8007B5100017C1100017D11D8B408D0D8D708
:1014E800000179070001D8907637773778370001FF
:1014F80077BF04D0020E00017961F2D7000179B1FB
:1015080002D00001779F0001D8907933000179510A
:101518000001781300017A510001D8B402D000010B
:10152800788F76C076F077C077F078C078F01200C0
:10153800000EDAEC12F00001776F0001775100011C
:10154800E36FE46BE56BE66B010EDAEC12F0000179
:10155800E76F0001E751D8A406D0000E0001796FAB
:10156800140E786F04D0E7C078F00001796B78C06A
:10157800E7F0020EDAEC12F00001DC6F030EDAEC91
:1015880012F00001DD6F0001DD51D8A406D0000E75
:1015980000017B6F140E7A6F04D0DDC07AF0000171
:1015A8007B6B7AC0DDF0040EDAEC12F00001E06F1C
:1015B800050EDAEC12F00001E16F0001E151D8A448
:1015C80006D0000E00017D6F140E7C6F04D0E1C0C0
:1015D8007CF000017D6B7CC0E1F0060EDAEC12F0C5
:1015E8000001826F000182510F0B0001E86F0001BA
:1015F800E851D8A406D0000E00017F6F030E7E6F5D
:1016080004D0E8C07EF000017F6B7EC0E8F00001E6
:1016180082390F0B0F0B0001E96F0001E951D8A4C3
:1016280006D0000E0001816F030E806F04D0E9C060
:1016380080F00001816B80C0E9F0120000017E6F2C
:1016480000017EAF03D0000E00017E6F00017EA175
:1016580002D08A8401D08A947EC076F00001776B2C
:10166800000E0001796F020E786F26EC0FF0000172
:1016780076310001D8A002D08A8A01D08A9A7EC029
:1016880076F00001776B000E0001796F040E786F19
:1016980026EC0FF0000176310001D8A002D08A882C
:1016A80001D08A987EC076F00001776B000E0001A9
:1016B800796F080E786F26EC0FF000017631000183
:1016C800D8A002D08A8001D08A907EC076F000012E
:1016D800776B000E0001796F100E786F26EC0FF013
:1016E800000176310001D8A002D08A8801D08A98FA
:1016F8007EC076F00001776B000E0001796F200E36
:10170800786F26EC0FF0000176310001D8A002D0E6
:101718008A8201D08A927EC076F00001776B000E33
:101728000001796F400E786F26EC0FF000017631DA
:101738000001D8A002D0898C1200899C12000600F2
:10174800E9CF11F0EACF12F0E1CF13F0E2CF14F0B5
:10175800D9CF15F0DACF16F0F3CF17F0F4CF18F091
:10176800F6CF19F0F7CF1AF0F8CF1BF0F5CF1CF031
:101778009DB09EA044D0D00E1E6E900E1D6EFF0E22
:101788000B6EFF0E0C6E1DC00DF01EC00EF00D1E70
:101798000E1E0D4A0E2A0B500D260C500E220D500F
:1017A800CE260E50CF229E90010E0001E325016E39
:1017B800000E0001E421026E000E0001E521036E17
:1017C800000E0001E621046E800E056E510E066EB5
:1017D800010E076E000E086EDCEC0FF001C0E3F09E
:1017E80002C0E4F003C0E5F004C0E6F00001DE0743
:1017F800000E016E0001E351ACEC12F002D09DA482
:1018080000D01CC0F5FF1BC0F8FF1AC0F7FF19C0B5
:10181800F6FF18C0F4FF17C0F3FF16C0DAFF15C0B3
:10182800D9FF14C0E2FF13C0E1FF12C0EAFF11C0E4
:10183800E9FF10C0FBFF0FC0FAFF3D921100000145
:101848007E6F000E24EC11F0899400017EA102D075
:10185800898C01D0899C7EC076F00001776B000EE0
:101868000001796F020E786F26EC0FF000017631D7
:101878000001D8A002D08A8201D08A927EC076F078
:101888000001776B000E0001796F040E786F26EC6B
:101898000FF0000176310001D8A002D08A8401D06F
:1018A8008A947EC076F00001776B000E0001796F94
:1018B800080E786F26EC0FF0000176310001D8A0F1
:1018C80002D08A8601D08A967EC076F00001776BB6
:1018D800000E0001796F100E786F26EC0FF00001F2
:1018E80076310001D8A002D08A8801D08A987EC0BB
:1018F80076F00001776B000E0001796F200E786F8B
:1019080026EC0FF0000176310001D8A002D08A8AB7
:1019180001D08A9A7EC076F00001776B000E000134
:10192800796F400E786F26EC0FF0000176310001D8
:10193800D8A002D08A8012008A9012000001806F1D
:10194800450E74EC10F080090001D76F000180513A
:1019580074EC10F080090001D86F000E24EC11F02F
:101968008B928B948B90899A8996898889840D0E9D
:101978000001DB6101D004D000017F6B7F2B02D016
:1019880000017F6B000E7FB1800E7F6F00017F51D9
:101998000001D71922EC0BF0000E0001826F640ED3
:1019A800816F00018107D8A08207000181510001E1
:1019B8008211D8A4F6D78986899889840D0E0001EA
:1019C800DB6101D004D000017F6B7F2B02D00001C6
:1019D8007F6B000E7FB1800E7F6F00017F51000189
:1019E800D81922EC0BF0000E0001826F640E816F93
:1019F80000018107D8A082070001815100018211EE
:101A0800D8A4F6D7898689888994600E23EC0CF0CF
:101A1800030E0001826FE80E816F00018107D8A0D4
:101A280082070001815100018211D8B49DD7F5D7F2
:101A3800A2C076F0A3C077F0000E0001796F030E04
:101A4800786F0BEC12F0A0C0A4F0A1C0A5F00001C3
:101A580076510001A427000177510001A523A4C0F5
:101A6800F6FFA5C0F7FF0900F5CFA6F00900F5CFEE
:101A7800A7F00A00F5CFA8F044D0A6C091F0A7C0FF
:101A880092F0A8C093F09DC08EF09EC08FF09FC0CA
:101A980090F08CEC07F08EC082F08FC083F090C07D
:101AA80084F0000E0001796F030E786F0001A20721
:101AB800D8A0A307A2C076F0A3C077F00BEC12F071
:101AC800A0C0A4F0A1C0A5F0000176510001A42790
:101AD800000177510001A523A4C0F6FFA5C0F7FFB8
:101AE8000900F5CF85F00900F5CF86F00A00F5CF9B
:101AF80087F07FEC05F082C0A6F083C0A7F084C011
:101B0800A8F00001A2510001A311D8A4B6D7A6C01D
:101B18009DF0A7C09EF0A8C09FF01200000E286E8E
:101B280026AE0AD0261E251E241E236C000E242253
:101B380025222622010E286E22AE0AD0221E211E40
:101B4800201E1F6C000E202221222222010E281A9C
:101B5800000E296E000E2A6E000E2B6E000E2C6EE3
:101B68002350241025102610D8B42AD0010E276E31
:101B780006D0D8902336243625362636272A26AE90
:101B8800F8D7D89029362A362B362C3623501F5CA6
:101B9800245020582550215826502258D8A009D022
:101BA80023501F5E2450205A2550215A2650225A6D
:101BB8002980D8902632253224322332272EE1D7A5
:101BC8002850D8B408D02C1E2B1E2A1E296C000EB3
:101BD8002A222B222C2229C01FF02AC020F02BC039
:101BE80021F02CC022F01200276E27AE02D0000E82
:101BF800276E27A002D08A8401D08A9427C01FF0BC
:101C0800206A000E226E020E216E32EC10F01F3098
:101C1800D8A002D08A8A01D08A9A27C01FF0206AE9
:101C2800000E226E040E216E32EC10F01F30D8A088
:101C380002D08A8801D08A9827C01FF0206A000E37
:101C4800226E080E216E32EC10F01F30D8A002D0A0
:101C58008A8001D08A9027C01FF0206A000E226E69
:101C6800100E216E32EC10F01F30D8A002D08A88F6
:101C780001D08A9827C01FF0206A000E226E200E1D
:101C8800216E32EC10F01F30D8A002D08A8201D029
:101C98008A9227C01FF0206A000E226E400E216E25
:101CA80032EC10F01F30D8A002D0898C1200899C29
:101CB8001200276E000EA3EC11F0899427A002D021
:101CC800898C01D0899C27C01FF0206A000E226EE3
:101CD800020E216E32EC10F01F30D8A002D08A829A
:101CE80001D08A9227C01FF0206A000E226E040ECF
:101CF800216E32EC10F01F30D8A002D08A8401D0B7
:101D08008A9427C01FF0206A000E226E080E216EEA
:101D180032EC10F01F30D8A002D08A8601D08A9603
:101D280027C01FF0206A000E226E100E216E32ECC2
:101D380010F01F30D8A002D08A8801D08A9827C016
:101D48001FF0206A000E226E200E216E32EC10F079
:101D58001F30D8A002D08A8A01D08A9A27C01FF0E3
:101D6800206A000E226E400E216E32EC10F01F30F9
:101D7800D8A002D08A8012008A901200000184AF95
:101D88001DD082C088F083C089F084C08AF0000129
:101D9800881F891F8A1F882B000E89238A23000E1B
:101DA800000188250001826F000E000189210001D1
:101DB800836F800E00018A210001846F000187AFC4
:101DC8001DD085C088F086C089F087C08AF00001E0
:101DD800881F891F8A1F882B000E89238A23000EDB
:101DE800000188250001856F000E0001892100018E
:101DF800866F800E00018A210001876F000E0001A6
:101E0800821B000E0001831B800E0001841B000E44
:101E18000001851B000E0001861B800E0001871B38
:101E2800000185510001825D00018651000183593E
:101E38000001875100018459D8B002D0D89012000F
:101E4800D8801200000E00017B6F000179AF08D026
:101E58000001786D791FD8B0792B010E00017B6FD6
:101E6800000177AF08D00001766D771FD8B0772BC7
:101E7800010E00017B1B000E00017D6F000E7C6FC0
:101E88000001785100017911D8B42CD0010E00015D
:101E98007A6F06D00001D8907837793700017A2B0D
:101EA800000179AFF7D70001D8907C377D37000162
:101EB80078510001765D0001795100017759D8A069
:101EC8000AD0000178510001765F000179510001C4
:101ED800775B00017C810001D89079337833000169
:101EE8007A2FE1D700017B510001D8B405D0000159
:101EF8007C6D7D1FD8B07D2B7CC076F07DC077F0DF
:101F08001200000176510001771100017811D8A460
:101F180012D079C0D9FF7AC0DAFF000EDE6E000E4B
:101F2800DD6E000E0001766F000E0001776F000E67
:101F38000001786F1200000178517F0B00017B6F60
:101F48007C6BD89000017B377C3779C0D9FF7AC089
:101F5800DAFF7BC0DEFF7CC0DDFF000177AF04D075
:101F680000017B6B7B2B02D000017B6B00017B5156
:101F780079C0D9FF7AC0DAFFDE12000EDD1279C00F
:101F8800D9FF7AC0DAFF820EDE26FF0EDD220001BD
:101F980078817883788578877889788B789D00012F
:101FA800779F76C076F077C077F078C078F0120027
:101FB800000E0A6E04AE0AD0041E031E021E016C37
:101FC800000E022203220422010E0A6E08AE08D077
:101FD800081E071E061E056C000E06220722082290
:101FE8000550061007100810D8B424D0010E096E49
:101FF80006D0D8900536063607360836092A08AEC0
:10200800F8D70550015C065002580750035808508D
:102018000458D8A008D00550015E0650025A07504F
:10202800035A0850045AD89008320732063205324B
:10203800092EE7D70A50D8B408D0041E031E021E82
:10204800016C000E02220322042201C001F002C02A
:1020580002F003C003F004C004F01200000E246E66
:1020680022AE06D0216C221ED8B0222A010E246E80
:1020780020AE06D01F6C201ED8B0202A010E241ACC
:10208800000E266E000E256E21502210D8B41CD0EA
:10209800010E236E04D0D89021362236232A22AE90
:1020A800FAD7D8902536263621501F5C2250205862
:1020B800D8A005D021501F5E2250205A2580D890E4
:1020C80022322132232EEDD72450D8B404D0256CE7
:1020D800261ED8B0262A25C01FF026C020F01200E0
:1020E8000001776F13D000017751010D010EF32421
:1020F800F66E080EF420F76E0800F5CF76F02DD0B6
:10210800790E01D0000E0001766F27D000017751BB
:10211800000AD8B4E8D7010AD8B4E5D7030AD8B476
:10212800E2D7010AD8B4DFD7070AD8B4DCD7010A46
:10213800D8B4D9D7030AD8B4D6D7010AD8B4D3D7D4
:102148000F0AD8B4D0D7010AD8B4CDD74C0AD8B41E
:10215800D7D7200AD8B4D4D7D5D7000176511200E2
:10216800010EA3EC11F0000E206E81A002D0010E2A
:1021780001D0000E010DF350201281A202D0010EF1
:1021880001D0000E020DF350201281A402D0010EDE
:1021980001D0000E040DF350201281A602D0010ECA
:1021A80001D0000E080DF350201281A802D0010EB4
:1021B80001D0000E100DF350201281AA02D0010E9A
:1021C80001D0000E200DF35020122050FF0A1200FB
:1021D800000E246E20AE06D01F6C201ED8B0202A18
:1021E800010E246E22AE04D0216C221ED8B0222A01
:1021F80021502210D8B418D0010E236E04D0D890E4
:1022080021362236232A22AEFAD721501F5C2250CB
:102218002058D8A004D021501F5E2250205AD890B0
:1022280022322132232EF1D72450D8B404D01F6C87
:10223800201ED8B0202A1FC01FF020C020F0120096
:102248000001766F000176A102D0928C01D0929C99
:10225800000176A102D0938201D09392000176A169
:1022680002D0938401D09394000176A102D0938682
:1022780001D09396000176A102D0938801D093985B
:10228800000176A102D0938A01D0939A000176A129
:1022980002D09380120093901200CA0EF66E250E9B
:1022A800F76E000EF86E0900F5CFE8F00900F5CFDB
:1022B800E9F0C80EF66E250EF76E000EF86E0900EE
:1022C800F5CF3BF00900F5CF3CF000EED4F00F0E4F
:1022D800EE6AE806FDE1376A3A6A396A386A3D907B
:1022E8003D92000EF86E000114EF04F0E3C076F0A2
:1022F800000E9DEC12F0E7C076F0010E9DEC12F096
:10230800DCC076F0020E9DEC12F0DDC076F0030E14
:102318009DEC12F0E0C076F0040E9DEC12F0E1C0E6
:1023280076F0050E9DEC12F00001E939F00B000182
:10233800E8110001766F060E9DEC12F012001F6E78
:102348001FA002D0928C01D0929C1FA002D0938231
:1023580001D093921FA002D0938401D093941FA020
:1023680002D0938601D093961FA002D0938801D003
:1023780093981FA002D0938A01D0939A1FA002D0ED
:102388009380120093901200000E0001816F0001EB
:102398007FAF08D000017E6D7F1FD8B07F2B010E64
:1023A8000001816F7EC076F07FC077F00001786B06
:1023B8008E0E0001796F81C07AF016EC0AF076C0B3
:1023C8007EF077C07FF078C080F01200CD90CD8E7F
:1023D800CD9CCD929E909F809D80CD8ACD88D00E39
:1023E8000001796F900E786F78C076F079C077F039
:1023F8000001761F771F764B772BFF0E000176259D
:10240800CE6EFF0E00017721CF6ECD801200000145
:10241800765100017803F3CF7AF0F4CF7BF0000116
:10242800765100017903F35000017B2700017751B1
:1024380000017803F35000017B277AC076F07BC057
:1024480077F01200D380D3829B8ED39CD38AD38813
:102458006BEC12F0BAEC12F08EEC12F0EAEC11F020
:102468007FEC12F0D1EC12F0D08EF28EF29CE1ECFF
:1024780012F0120000017651000177110001781165
:10248800D8B409D0000E0001761B000E0001771B9E
:10249800800E0001781B76C076F077C077F078C0A0
:1024A80078F012007EC076F07FC077F00001786B7C
:1024B8008E0E0001796F000E00017A6F16EC0AF09B
:1024C80076C07EF077C07FF078C080F012009280EE
:1024D800C2809D9C9F9C9E9CC29AC298C296C294A0
:1024E800C190C186C184C182C08AC096C098C08488
:1024F800C092C0801200CA94CA80CA92000ECC6EE4
:10250800CB68CA96CA98CA9ACA9C9E929F929D8284
:10251800CA841200D59E000ED76E000ED66ED59CCA
:10252800D58AF294F194F28AD596D594D592D5901D
:1025380012000001776FA68477C0A9FF76C0A8FFB4
:10254800F29E550EA76EAA0EA76EF28EA6821200F4
:10255800026EA68402C0A9FF01C0A8FFF29E550E14
:10256800A76EAA0EA76EF28EA6821200F19E929610
:1025780092869298928892948984929A899A94924F
:102588009494949012001F6E1FC03AF03A50D8B439
:1025980002D0898A1200899A1200A69EA69CA69843
:1025A800A696A694A198A298A08812000001766F1A
:1025B80076C0A9FFA680A8501200D180040012009E
:0425C800E700020323
:020000040020DA
:08000000FFFFFFFFFFFFFFFF00
:020000040030CA
:0E00000000081F1EFF8101FF0FC00FE00F4020
:00000001FF
