:0400000053EF00F0CA
:0E0008003382FACF01F0FBCF02F096ED00F04C
:100018003380D8CF0FF0E8CF10F0E0CF11F0FACF4F
:1000280012F0FBCF13F0E9CF14F0EACF15F0E1CFCF
:1000380016F0E2CF17F0D9CF18F0DACF19F0F3CFD6
:100048001AF0F4CF1BF0F6CF1CF0F7CF1DF0F8CF65
:100058001EF0F5CF1FF01FC0F5FF1EC0F8FF1DC032
:10006800F7FF1CC0F6FF1BC0F4FF1AC0F3FF19C04E
:10007800DAFF18C0D9FF17C0E2FF16C0E1FF15C0AC
:10008800EAFF14C0E9FF13C0FBFF12C0FAFF11C05A
:10009800E0FF10C0E8FF0FC0D8FF33901000D1EF89
:1000A80000F00CEC01F030EC01F0256E25A806D02C
:1000B80030B602D0010E01D0000E2E6E25B0308869
:1000C80025A205D031C0D9FF32C0DAFFDF2A25A426
:1000D80005D031C0D9FF32C0DAFFDF0630AA04D01C
:1000E800000E236E400E03D0000E236E200E226EEB
:1000F800000E30B8010E30B2020930B4040930B035
:10010800080930B610092210246E24502CEC01F096
:1001180021C020F031C0D9FF32C0DAFFDF5017EC20
:1001280001F0C1D70600E9CF03F0EACF04F0E1CF30
:1001380005F0E2CF06F0D9CF07F0DACF08F0F3CF19
:1001480009F0F4CF0AF0F6CF0BF0F7CF0CF0F8CFA8
:100158000DF0F5CF0EF0F2BAF2A401D0F2940EC071
:10016800F5FF0DC0F8FF0CC0F7FF0BC0F6FF0AC083
:10017800F4FF09C0F3FF08C0DAFF07C0D9FF06C0C3
:10018800E2FF05C0E1FF04C0EAFF03C0E9FF02C0C7
:10019800FBFF01C0FAFF33921100680EF66E020EE3
:1001A800F76E000EF86E0900F5CF31F00900F5CFB3
:1001B80032F0306A00EE26F00A0EEE6AE806FDE13B
:1001C80033903392000155EF00F09280C2809D9CDD
:1001D8009F9C9E9CC29AC298C296C294C190C186A6
:1001E800C184C182C08AC096C098C084C092C080B1
:1001F8001200D59E000ED76E000ED66ED59CD58AFD
:10020800F28AF294F194D596D584D582D5801200DD
:10021800E9EC00F0F19ED08EF28EF29CFDEC00F03D
:1002280022EC01F01200936889869298929A20A095
:1002380002D0898801D08998899A1200CD90CD8EF4
:10024800CD9CCD929D909E909F90CD8ACD88120096
:100258009368929689961200898693688150120055
:020268002F0065
:020000040020DA
:08000000FFFFFFFFFFFFFFFF00
:020000040030CA
:0E00000000081F1EFF8105FF0FC00FE00F401C
:00000001FF
